{
	"contracts/User.sol": {
		"User": {
			"abi": [
				{
					"inputs": [
						{
							"internalType": "address",
							"name": "userAddress",
							"type": "address"
						},
						{
							"internalType": "uint256",
							"name": "idPlatform",
							"type": "uint256"
						},
						{
							"internalType": "string",
							"name": "platformName",
							"type": "string"
						}
					],
					"name": "addPlatformToUser",
					"outputs": [
						{
							"internalType": "bool",
							"name": "",
							"type": "bool"
						}
					],
					"stateMutability": "nonpayable",
					"type": "function"
				},
				{
					"inputs": [
						{
							"internalType": "address",
							"name": "userAddress",
							"type": "address"
						}
					],
					"name": "addUser",
					"outputs": [],
					"stateMutability": "nonpayable",
					"type": "function"
				},
				{
					"inputs": [
						{
							"internalType": "address",
							"name": "addressInput",
							"type": "address"
						},
						{
							"internalType": "uint256",
							"name": "amount",
							"type": "uint256"
						}
					],
					"name": "checkUserBalance",
					"outputs": [
						{
							"internalType": "bool",
							"name": "",
							"type": "bool"
						}
					],
					"stateMutability": "view",
					"type": "function"
				},
				{
					"inputs": [
						{
							"internalType": "address",
							"name": "userAddress",
							"type": "address"
						},
						{
							"internalType": "uint256",
							"name": "idPlatform",
							"type": "uint256"
						}
					],
					"name": "checkUserPlatform",
					"outputs": [
						{
							"internalType": "bool",
							"name": "",
							"type": "bool"
						},
						{
							"internalType": "string",
							"name": "",
							"type": "string"
						}
					],
					"stateMutability": "view",
					"type": "function"
				},
				{
					"inputs": [
						{
							"internalType": "address",
							"name": "userAddress",
							"type": "address"
						}
					],
					"name": "getUserData",
					"outputs": [
						{
							"internalType": "address",
							"name": "userAdd",
							"type": "address"
						},
						{
							"internalType": "uint256",
							"name": "balance",
							"type": "uint256"
						}
					],
					"stateMutability": "view",
					"type": "function"
				}
			],
			"devdoc": {
				"kind": "dev",
				"methods": {},
				"version": 1
			},
			"evm": {
				"assembly": "    /* \"contracts/User.sol\":861:2980  contract User{... */\n  mstore(0x40, 0x80)\n  callvalue\n  dup1\n  iszero\n  tag_1\n  jumpi\n  0x00\n  dup1\n  revert\ntag_1:\n  pop\n  dataSize(sub_0)\n  dup1\n  dataOffset(sub_0)\n  0x00\n  codecopy\n  0x00\n  return\nstop\n\nsub_0: assembly {\n        /* \"contracts/User.sol\":861:2980  contract User{... */\n      mstore(0x40, 0x80)\n      callvalue\n      dup1\n      iszero\n      tag_1\n      jumpi\n      0x00\n      dup1\n      revert\n    tag_1:\n      pop\n      jumpi(tag_2, lt(calldatasize, 0x04))\n      shr(0xe0, calldataload(0x00))\n      dup1\n      0x2968ab1d\n      eq\n      tag_3\n      jumpi\n      dup1\n      0x34f2278f\n      eq\n      tag_4\n      jumpi\n      dup1\n      0x421b2d8b\n      eq\n      tag_5\n      jumpi\n      dup1\n      0xc5459ed8\n      eq\n      tag_6\n      jumpi\n      dup1\n      0xffc9896b\n      eq\n      tag_7\n      jumpi\n    tag_2:\n      0x00\n      dup1\n      revert\n        /* \"contracts/User.sol\":2240:2654  function addPlatformToUser(address userAddress, uint idPlatform, string memory platformName) public returns (bool){... */\n    tag_3:\n      tag_8\n      0x04\n      dup1\n      calldatasize\n      sub\n      dup2\n      add\n      swap1\n      tag_9\n      swap2\n      swap1\n      tag_10\n      jump\t// in\n    tag_9:\n      tag_11\n      jump\t// in\n    tag_8:\n      mload(0x40)\n      tag_12\n      swap2\n      swap1\n      tag_13\n      jump\t// in\n    tag_12:\n      mload(0x40)\n      dup1\n      swap2\n      sub\n      swap1\n      return\n        /* \"contracts/User.sol\":1910:2151  function checkUserPlatform(address userAddress, uint idPlatform) public view returns (bool, string memory){... */\n    tag_4:\n      tag_14\n      0x04\n      dup1\n      calldatasize\n      sub\n      dup2\n      add\n      swap1\n      tag_15\n      swap2\n      swap1\n      tag_16\n      jump\t// in\n    tag_15:\n      tag_17\n      jump\t// in\n    tag_14:\n      mload(0x40)\n      tag_18\n      swap3\n      swap2\n      swap1\n      tag_19\n      jump\t// in\n    tag_18:\n      mload(0x40)\n      dup1\n      swap2\n      sub\n      swap1\n      return\n        /* \"contracts/User.sol\":2710:2807  function addUser(address userAddress) public {... */\n    tag_5:\n      tag_20\n      0x04\n      dup1\n      calldatasize\n      sub\n      dup2\n      add\n      swap1\n      tag_21\n      swap2\n      swap1\n      tag_22\n      jump\t// in\n    tag_21:\n      tag_23\n      jump\t// in\n    tag_20:\n      stop\n        /* \"contracts/User.sol\":1562:1747  function checkUserBalance(address addressInput, uint amount) public view returns (bool){... */\n    tag_6:\n      tag_24\n      0x04\n      dup1\n      calldatasize\n      sub\n      dup2\n      add\n      swap1\n      tag_25\n      swap2\n      swap1\n      tag_16\n      jump\t// in\n    tag_25:\n      tag_26\n      jump\t// in\n    tag_24:\n      mload(0x40)\n      tag_27\n      swap2\n      swap1\n      tag_13\n      jump\t// in\n    tag_27:\n      mload(0x40)\n      dup1\n      swap2\n      sub\n      swap1\n      return\n        /* \"contracts/User.sol\":2813:2977  function getUserData(address userAddress) public view returns(address userAdd, uint balance){    ... */\n    tag_7:\n      tag_28\n      0x04\n      dup1\n      calldatasize\n      sub\n      dup2\n      add\n      swap1\n      tag_29\n      swap2\n      swap1\n      tag_22\n      jump\t// in\n    tag_29:\n      tag_30\n      jump\t// in\n    tag_28:\n      mload(0x40)\n      tag_31\n      swap3\n      swap2\n      swap1\n      tag_32\n      jump\t// in\n    tag_31:\n      mload(0x40)\n      dup1\n      swap2\n      sub\n      swap1\n      return\n        /* \"contracts/User.sol\":2240:2654  function addPlatformToUser(address userAddress, uint idPlatform, string memory platformName) public returns (bool){... */\n    tag_11:\n        /* \"contracts/User.sol\":2349:2353  bool */\n      0x00\n        /* \"contracts/User.sol\":2422:2427  false */\n      dup1\n        /* \"contracts/User.sol\":2367:2427  userData[userAddress].platforms[idPlatform].isValid == false */\n      iszero\n      iszero\n        /* \"contracts/User.sol\":2367:2375  userData */\n      0x00\n        /* \"contracts/User.sol\":2367:2388  userData[userAddress] */\n      dup1\n        /* \"contracts/User.sol\":2376:2387  userAddress */\n      dup7\n        /* \"contracts/User.sol\":2367:2388  userData[userAddress] */\n      0xffffffffffffffffffffffffffffffffffffffff\n      and\n      0xffffffffffffffffffffffffffffffffffffffff\n      and\n      dup2\n      mstore\n      0x20\n      add\n      swap1\n      dup2\n      mstore\n      0x20\n      add\n      0x00\n      keccak256\n        /* \"contracts/User.sol\":2367:2398  userData[userAddress].platforms */\n      0x01\n      add\n        /* \"contracts/User.sol\":2367:2410  userData[userAddress].platforms[idPlatform] */\n      0x00\n        /* \"contracts/User.sol\":2399:2409  idPlatform */\n      dup6\n        /* \"contracts/User.sol\":2367:2410  userData[userAddress].platforms[idPlatform] */\n      dup2\n      mstore\n      0x20\n      add\n      swap1\n      dup2\n      mstore\n      0x20\n      add\n      0x00\n      keccak256\n        /* \"contracts/User.sol\":2367:2418  userData[userAddress].platforms[idPlatform].isValid */\n      0x01\n      add\n      0x00\n      swap1\n      sload\n      swap1\n      0x0100\n      exp\n      swap1\n      div\n      0xff\n      and\n        /* \"contracts/User.sol\":2367:2427  userData[userAddress].platforms[idPlatform].isValid == false */\n      iszero\n      iszero\n      sub\n        /* \"contracts/User.sol\":2364:2647  if(userData[userAddress].platforms[idPlatform].isValid == false){... */\n      tag_34\n      jumpi\n        /* \"contracts/User.sol\":2501:2513  platformName */\n      dup2\n        /* \"contracts/User.sol\":2442:2450  userData */\n      0x00\n        /* \"contracts/User.sol\":2442:2463  userData[userAddress] */\n      dup1\n        /* \"contracts/User.sol\":2451:2462  userAddress */\n      dup7\n        /* \"contracts/User.sol\":2442:2463  userData[userAddress] */\n      0xffffffffffffffffffffffffffffffffffffffff\n      and\n      0xffffffffffffffffffffffffffffffffffffffff\n      and\n      dup2\n      mstore\n      0x20\n      add\n      swap1\n      dup2\n      mstore\n      0x20\n      add\n      0x00\n      keccak256\n        /* \"contracts/User.sol\":2442:2473  userData[userAddress].platforms */\n      0x01\n      add\n        /* \"contracts/User.sol\":2442:2485  userData[userAddress].platforms[idPlatform] */\n      0x00\n        /* \"contracts/User.sol\":2474:2484  idPlatform */\n      dup6\n        /* \"contracts/User.sol\":2442:2485  userData[userAddress].platforms[idPlatform] */\n      dup2\n      mstore\n      0x20\n      add\n      swap1\n      dup2\n      mstore\n      0x20\n      add\n      0x00\n      keccak256\n        /* \"contracts/User.sol\":2442:2498  userData[userAddress].platforms[idPlatform].platformName */\n      0x00\n      add\n        /* \"contracts/User.sol\":2442:2513  userData[userAddress].platforms[idPlatform].platformName = platformName */\n      swap1\n      dup2\n      tag_35\n      swap2\n      swap1\n      tag_36\n      jump\t// in\n    tag_35:\n      pop\n        /* \"contracts/User.sol\":2581:2585  true */\n      0x01\n        /* \"contracts/User.sol\":2527:2535  userData */\n      0x00\n        /* \"contracts/User.sol\":2527:2548  userData[userAddress] */\n      dup1\n        /* \"contracts/User.sol\":2536:2547  userAddress */\n      dup7\n        /* \"contracts/User.sol\":2527:2548  userData[userAddress] */\n      0xffffffffffffffffffffffffffffffffffffffff\n      and\n      0xffffffffffffffffffffffffffffffffffffffff\n      and\n      dup2\n      mstore\n      0x20\n      add\n      swap1\n      dup2\n      mstore\n      0x20\n      add\n      0x00\n      keccak256\n        /* \"contracts/User.sol\":2527:2558  userData[userAddress].platforms */\n      0x01\n      add\n        /* \"contracts/User.sol\":2527:2570  userData[userAddress].platforms[idPlatform] */\n      0x00\n        /* \"contracts/User.sol\":2559:2569  idPlatform */\n      dup6\n        /* \"contracts/User.sol\":2527:2570  userData[userAddress].platforms[idPlatform] */\n      dup2\n      mstore\n      0x20\n      add\n      swap1\n      dup2\n      mstore\n      0x20\n      add\n      0x00\n      keccak256\n        /* \"contracts/User.sol\":2527:2578  userData[userAddress].platforms[idPlatform].isValid */\n      0x01\n      add\n      0x00\n        /* \"contracts/User.sol\":2527:2585  userData[userAddress].platforms[idPlatform].isValid = true */\n      0x0100\n      exp\n      dup2\n      sload\n      dup2\n      0xff\n      mul\n      not\n      and\n      swap1\n      dup4\n      iszero\n      iszero\n      mul\n      or\n      swap1\n      sstore\n      pop\n        /* \"contracts/User.sol\":2606:2610  true */\n      0x01\n        /* \"contracts/User.sol\":2599:2610  return true */\n      swap1\n      pop\n      jump(tag_33)\n        /* \"contracts/User.sol\":2364:2647  if(userData[userAddress].platforms[idPlatform].isValid == false){... */\n    tag_34:\n        /* \"contracts/User.sol\":2642:2647  false */\n      0x00\n        /* \"contracts/User.sol\":2635:2647  return false */\n      swap1\n      pop\n        /* \"contracts/User.sol\":2240:2654  function addPlatformToUser(address userAddress, uint idPlatform, string memory platformName) public returns (bool){... */\n    tag_33:\n      swap4\n      swap3\n      pop\n      pop\n      pop\n      jump\t// out\n        /* \"contracts/User.sol\":1910:2151  function checkUserPlatform(address userAddress, uint idPlatform) public view returns (bool, string memory){... */\n    tag_17:\n        /* \"contracts/User.sol\":1996:2000  bool */\n      0x00\n        /* \"contracts/User.sol\":2002:2015  string memory */\n      0x60\n        /* \"contracts/User.sol\":2034:2042  userData */\n      0x00\n        /* \"contracts/User.sol\":2034:2055  userData[userAddress] */\n      dup1\n        /* \"contracts/User.sol\":2043:2054  userAddress */\n      dup6\n        /* \"contracts/User.sol\":2034:2055  userData[userAddress] */\n      0xffffffffffffffffffffffffffffffffffffffff\n      and\n      0xffffffffffffffffffffffffffffffffffffffff\n      and\n      dup2\n      mstore\n      0x20\n      add\n      swap1\n      dup2\n      mstore\n      0x20\n      add\n      0x00\n      keccak256\n        /* \"contracts/User.sol\":2034:2065  userData[userAddress].platforms */\n      0x01\n      add\n        /* \"contracts/User.sol\":2034:2077  userData[userAddress].platforms[idPlatform] */\n      0x00\n        /* \"contracts/User.sol\":2066:2076  idPlatform */\n      dup5\n        /* \"contracts/User.sol\":2034:2077  userData[userAddress].platforms[idPlatform] */\n      dup2\n      mstore\n      0x20\n      add\n      swap1\n      dup2\n      mstore\n      0x20\n      add\n      0x00\n      keccak256\n        /* \"contracts/User.sol\":2034:2085  userData[userAddress].platforms[idPlatform].isValid */\n      0x01\n      add\n      0x00\n      swap1\n      sload\n      swap1\n      0x0100\n      exp\n      swap1\n      div\n      0xff\n      and\n        /* \"contracts/User.sol\":2087:2095  userData */\n      0x00\n        /* \"contracts/User.sol\":2087:2108  userData[userAddress] */\n      dup1\n        /* \"contracts/User.sol\":2096:2107  userAddress */\n      dup7\n        /* \"contracts/User.sol\":2087:2108  userData[userAddress] */\n      0xffffffffffffffffffffffffffffffffffffffff\n      and\n      0xffffffffffffffffffffffffffffffffffffffff\n      and\n      dup2\n      mstore\n      0x20\n      add\n      swap1\n      dup2\n      mstore\n      0x20\n      add\n      0x00\n      keccak256\n        /* \"contracts/User.sol\":2087:2118  userData[userAddress].platforms */\n      0x01\n      add\n        /* \"contracts/User.sol\":2087:2130  userData[userAddress].platforms[idPlatform] */\n      0x00\n        /* \"contracts/User.sol\":2119:2129  idPlatform */\n      dup6\n        /* \"contracts/User.sol\":2087:2130  userData[userAddress].platforms[idPlatform] */\n      dup2\n      mstore\n      0x20\n      add\n      swap1\n      dup2\n      mstore\n      0x20\n      add\n      0x00\n      keccak256\n        /* \"contracts/User.sol\":2087:2143  userData[userAddress].platforms[idPlatform].platformName */\n      0x00\n      add\n        /* \"contracts/User.sol\":2026:2144  return (userData[userAddress].platforms[idPlatform].isValid, userData[userAddress].platforms[idPlatform].platformName) */\n      dup1\n      dup1\n      sload\n      tag_39\n      swap1\n      tag_40\n      jump\t// in\n    tag_39:\n      dup1\n      0x1f\n      add\n      0x20\n      dup1\n      swap2\n      div\n      mul\n      0x20\n      add\n      mload(0x40)\n      swap1\n      dup2\n      add\n      0x40\n      mstore\n      dup1\n      swap3\n      swap2\n      swap1\n      dup2\n      dup2\n      mstore\n      0x20\n      add\n      dup3\n      dup1\n      sload\n      tag_41\n      swap1\n      tag_40\n      jump\t// in\n    tag_41:\n      dup1\n      iszero\n      tag_42\n      jumpi\n      dup1\n      0x1f\n      lt\n      tag_43\n      jumpi\n      0x0100\n      dup1\n      dup4\n      sload\n      div\n      mul\n      dup4\n      mstore\n      swap2\n      0x20\n      add\n      swap2\n      jump(tag_42)\n    tag_43:\n      dup3\n      add\n      swap2\n      swap1\n      0x00\n      mstore\n      keccak256(0x00, 0x20)\n      swap1\n    tag_44:\n      dup2\n      sload\n      dup2\n      mstore\n      swap1\n      0x01\n      add\n      swap1\n      0x20\n      add\n      dup1\n      dup4\n      gt\n      tag_44\n      jumpi\n      dup3\n      swap1\n      sub\n      0x1f\n      and\n      dup3\n      add\n      swap2\n    tag_42:\n      pop\n      pop\n      pop\n      pop\n      pop\n      swap1\n      pop\n      swap2\n      pop\n      swap2\n      pop\n        /* \"contracts/User.sol\":1910:2151  function checkUserPlatform(address userAddress, uint idPlatform) public view returns (bool, string memory){... */\n      swap3\n      pop\n      swap3\n      swap1\n      pop\n      jump\t// out\n        /* \"contracts/User.sol\":2710:2807  function addUser(address userAddress) public {... */\n    tag_23:\n        /* \"contracts/User.sol\":2797:2800  100 */\n      0x64\n        /* \"contracts/User.sol\":2765:2773  userData */\n      0x00\n        /* \"contracts/User.sol\":2765:2786  userData[userAddress] */\n      dup1\n        /* \"contracts/User.sol\":2774:2785  userAddress */\n      dup4\n        /* \"contracts/User.sol\":2765:2786  userData[userAddress] */\n      0xffffffffffffffffffffffffffffffffffffffff\n      and\n      0xffffffffffffffffffffffffffffffffffffffff\n      and\n      dup2\n      mstore\n      0x20\n      add\n      swap1\n      dup2\n      mstore\n      0x20\n      add\n      0x00\n      keccak256\n        /* \"contracts/User.sol\":2765:2794  userData[userAddress].balance */\n      0x00\n      add\n        /* \"contracts/User.sol\":2765:2800  userData[userAddress].balance = 100 */\n      dup2\n      swap1\n      sstore\n      pop\n        /* \"contracts/User.sol\":2710:2807  function addUser(address userAddress) public {... */\n      pop\n      jump\t// out\n        /* \"contracts/User.sol\":1562:1747  function checkUserBalance(address addressInput, uint amount) public view returns (bool){... */\n    tag_26:\n        /* \"contracts/User.sol\":1644:1648  bool */\n      0x00\n        /* \"contracts/User.sol\":1696:1702  amount */\n      dup2\n        /* \"contracts/User.sol\":1663:1671  userData */\n      0x00\n        /* \"contracts/User.sol\":1663:1685  userData[addressInput] */\n      dup1\n        /* \"contracts/User.sol\":1672:1684  addressInput */\n      dup6\n        /* \"contracts/User.sol\":1663:1685  userData[addressInput] */\n      0xffffffffffffffffffffffffffffffffffffffff\n      and\n      0xffffffffffffffffffffffffffffffffffffffff\n      and\n      dup2\n      mstore\n      0x20\n      add\n      swap1\n      dup2\n      mstore\n      0x20\n      add\n      0x00\n      keccak256\n        /* \"contracts/User.sol\":1663:1693  userData[addressInput].balance */\n      0x00\n      add\n      sload\n        /* \"contracts/User.sol\":1663:1702  userData[addressInput].balance < amount */\n      lt\n        /* \"contracts/User.sol\":1660:1716  if(userData[addressInput].balance < amount) return false */\n      iszero\n      tag_47\n      jumpi\n        /* \"contracts/User.sol\":1711:1716  false */\n      0x00\n        /* \"contracts/User.sol\":1704:1716  return false */\n      swap1\n      pop\n      jump(tag_46)\n        /* \"contracts/User.sol\":1660:1716  if(userData[addressInput].balance < amount) return false */\n    tag_47:\n        /* \"contracts/User.sol\":1735:1739  true */\n      0x01\n        /* \"contracts/User.sol\":1728:1739  return true */\n      swap1\n      pop\n        /* \"contracts/User.sol\":1562:1747  function checkUserBalance(address addressInput, uint amount) public view returns (bool){... */\n    tag_46:\n      swap3\n      swap2\n      pop\n      pop\n      jump\t// out\n        /* \"contracts/User.sol\":2813:2977  function getUserData(address userAddress) public view returns(address userAdd, uint balance){    ... */\n    tag_30:\n        /* \"contracts/User.sol\":2875:2890  address userAdd */\n      0x00\n        /* \"contracts/User.sol\":2892:2904  uint balance */\n      dup1\n        /* \"contracts/User.sol\":2927:2938  userAddress */\n      dup3\n        /* \"contracts/User.sol\":2940:2948  userData */\n      0x00\n        /* \"contracts/User.sol\":2940:2961  userData[userAddress] */\n      dup1\n        /* \"contracts/User.sol\":2949:2960  userAddress */\n      dup6\n        /* \"contracts/User.sol\":2940:2961  userData[userAddress] */\n      0xffffffffffffffffffffffffffffffffffffffff\n      and\n      0xffffffffffffffffffffffffffffffffffffffff\n      and\n      dup2\n      mstore\n      0x20\n      add\n      swap1\n      dup2\n      mstore\n      0x20\n      add\n      0x00\n      keccak256\n        /* \"contracts/User.sol\":2940:2969  userData[userAddress].balance */\n      0x00\n      add\n      sload\n        /* \"contracts/User.sol\":2919:2970  return (userAddress, userData[userAddress].balance) */\n      swap2\n      pop\n      swap2\n      pop\n        /* \"contracts/User.sol\":2813:2977  function getUserData(address userAddress) public view returns(address userAdd, uint balance){    ... */\n      swap2\n      pop\n      swap2\n      jump\t// out\n        /* \"#utility.yul\":7:82   */\n    tag_49:\n        /* \"#utility.yul\":40:46   */\n      0x00\n        /* \"#utility.yul\":73:75   */\n      0x40\n        /* \"#utility.yul\":67:76   */\n      mload\n        /* \"#utility.yul\":57:76   */\n      swap1\n      pop\n        /* \"#utility.yul\":7:82   */\n      swap1\n      jump\t// out\n        /* \"#utility.yul\":88:205   */\n    tag_50:\n        /* \"#utility.yul\":197:198   */\n      0x00\n        /* \"#utility.yul\":194:195   */\n      dup1\n        /* \"#utility.yul\":187:199   */\n      revert\n        /* \"#utility.yul\":211:328   */\n    tag_51:\n        /* \"#utility.yul\":320:321   */\n      0x00\n        /* \"#utility.yul\":317:318   */\n      dup1\n        /* \"#utility.yul\":310:322   */\n      revert\n        /* \"#utility.yul\":334:460   */\n    tag_52:\n        /* \"#utility.yul\":371:378   */\n      0x00\n        /* \"#utility.yul\":411:453   */\n      0xffffffffffffffffffffffffffffffffffffffff\n        /* \"#utility.yul\":404:409   */\n      dup3\n        /* \"#utility.yul\":400:454   */\n      and\n        /* \"#utility.yul\":389:454   */\n      swap1\n      pop\n        /* \"#utility.yul\":334:460   */\n      swap2\n      swap1\n      pop\n      jump\t// out\n        /* \"#utility.yul\":466:562   */\n    tag_53:\n        /* \"#utility.yul\":503:510   */\n      0x00\n        /* \"#utility.yul\":532:556   */\n      tag_99\n        /* \"#utility.yul\":550:555   */\n      dup3\n        /* \"#utility.yul\":532:556   */\n      tag_52\n      jump\t// in\n    tag_99:\n        /* \"#utility.yul\":521:556   */\n      swap1\n      pop\n        /* \"#utility.yul\":466:562   */\n      swap2\n      swap1\n      pop\n      jump\t// out\n        /* \"#utility.yul\":568:690   */\n    tag_54:\n        /* \"#utility.yul\":641:665   */\n      tag_101\n        /* \"#utility.yul\":659:664   */\n      dup2\n        /* \"#utility.yul\":641:665   */\n      tag_53\n      jump\t// in\n    tag_101:\n        /* \"#utility.yul\":634:639   */\n      dup2\n        /* \"#utility.yul\":631:666   */\n      eq\n        /* \"#utility.yul\":621:684   */\n      tag_102\n      jumpi\n        /* \"#utility.yul\":680:681   */\n      0x00\n        /* \"#utility.yul\":677:678   */\n      dup1\n        /* \"#utility.yul\":670:682   */\n      revert\n        /* \"#utility.yul\":621:684   */\n    tag_102:\n        /* \"#utility.yul\":568:690   */\n      pop\n      jump\t// out\n        /* \"#utility.yul\":696:835   */\n    tag_55:\n        /* \"#utility.yul\":742:747   */\n      0x00\n        /* \"#utility.yul\":780:786   */\n      dup2\n        /* \"#utility.yul\":767:787   */\n      calldataload\n        /* \"#utility.yul\":758:787   */\n      swap1\n      pop\n        /* \"#utility.yul\":796:829   */\n      tag_104\n        /* \"#utility.yul\":823:828   */\n      dup2\n        /* \"#utility.yul\":796:829   */\n      tag_54\n      jump\t// in\n    tag_104:\n        /* \"#utility.yul\":696:835   */\n      swap3\n      swap2\n      pop\n      pop\n      jump\t// out\n        /* \"#utility.yul\":841:918   */\n    tag_56:\n        /* \"#utility.yul\":878:885   */\n      0x00\n        /* \"#utility.yul\":907:912   */\n      dup2\n        /* \"#utility.yul\":896:912   */\n      swap1\n      pop\n        /* \"#utility.yul\":841:918   */\n      swap2\n      swap1\n      pop\n      jump\t// out\n        /* \"#utility.yul\":924:1046   */\n    tag_57:\n        /* \"#utility.yul\":997:1021   */\n      tag_107\n        /* \"#utility.yul\":1015:1020   */\n      dup2\n        /* \"#utility.yul\":997:1021   */\n      tag_56\n      jump\t// in\n    tag_107:\n        /* \"#utility.yul\":990:995   */\n      dup2\n        /* \"#utility.yul\":987:1022   */\n      eq\n        /* \"#utility.yul\":977:1040   */\n      tag_108\n      jumpi\n        /* \"#utility.yul\":1036:1037   */\n      0x00\n        /* \"#utility.yul\":1033:1034   */\n      dup1\n        /* \"#utility.yul\":1026:1038   */\n      revert\n        /* \"#utility.yul\":977:1040   */\n    tag_108:\n        /* \"#utility.yul\":924:1046   */\n      pop\n      jump\t// out\n        /* \"#utility.yul\":1052:1191   */\n    tag_58:\n        /* \"#utility.yul\":1098:1103   */\n      0x00\n        /* \"#utility.yul\":1136:1142   */\n      dup2\n        /* \"#utility.yul\":1123:1143   */\n      calldataload\n        /* \"#utility.yul\":1114:1143   */\n      swap1\n      pop\n        /* \"#utility.yul\":1152:1185   */\n      tag_110\n        /* \"#utility.yul\":1179:1184   */\n      dup2\n        /* \"#utility.yul\":1152:1185   */\n      tag_57\n      jump\t// in\n    tag_110:\n        /* \"#utility.yul\":1052:1191   */\n      swap3\n      swap2\n      pop\n      pop\n      jump\t// out\n        /* \"#utility.yul\":1197:1314   */\n    tag_59:\n        /* \"#utility.yul\":1306:1307   */\n      0x00\n        /* \"#utility.yul\":1303:1304   */\n      dup1\n        /* \"#utility.yul\":1296:1308   */\n      revert\n        /* \"#utility.yul\":1320:1437   */\n    tag_60:\n        /* \"#utility.yul\":1429:1430   */\n      0x00\n        /* \"#utility.yul\":1426:1427   */\n      dup1\n        /* \"#utility.yul\":1419:1431   */\n      revert\n        /* \"#utility.yul\":1443:1545   */\n    tag_61:\n        /* \"#utility.yul\":1484:1490   */\n      0x00\n        /* \"#utility.yul\":1535:1537   */\n      0x1f\n        /* \"#utility.yul\":1531:1538   */\n      not\n        /* \"#utility.yul\":1526:1528   */\n      0x1f\n        /* \"#utility.yul\":1519:1524   */\n      dup4\n        /* \"#utility.yul\":1515:1529   */\n      add\n        /* \"#utility.yul\":1511:1539   */\n      and\n        /* \"#utility.yul\":1501:1539   */\n      swap1\n      pop\n        /* \"#utility.yul\":1443:1545   */\n      swap2\n      swap1\n      pop\n      jump\t// out\n        /* \"#utility.yul\":1551:1731   */\n    tag_62:\n        /* \"#utility.yul\":1599:1676   */\n      0x4e487b7100000000000000000000000000000000000000000000000000000000\n        /* \"#utility.yul\":1596:1597   */\n      0x00\n        /* \"#utility.yul\":1589:1677   */\n      mstore\n        /* \"#utility.yul\":1696:1700   */\n      0x41\n        /* \"#utility.yul\":1693:1694   */\n      0x04\n        /* \"#utility.yul\":1686:1701   */\n      mstore\n        /* \"#utility.yul\":1720:1724   */\n      0x24\n        /* \"#utility.yul\":1717:1718   */\n      0x00\n        /* \"#utility.yul\":1710:1725   */\n      revert\n        /* \"#utility.yul\":1737:2018   */\n    tag_63:\n        /* \"#utility.yul\":1820:1847   */\n      tag_116\n        /* \"#utility.yul\":1842:1846   */\n      dup3\n        /* \"#utility.yul\":1820:1847   */\n      tag_61\n      jump\t// in\n    tag_116:\n        /* \"#utility.yul\":1812:1818   */\n      dup2\n        /* \"#utility.yul\":1808:1848   */\n      add\n        /* \"#utility.yul\":1950:1956   */\n      dup2\n        /* \"#utility.yul\":1938:1948   */\n      dup2\n        /* \"#utility.yul\":1935:1957   */\n      lt\n        /* \"#utility.yul\":1914:1932   */\n      0xffffffffffffffff\n        /* \"#utility.yul\":1902:1912   */\n      dup3\n        /* \"#utility.yul\":1899:1933   */\n      gt\n        /* \"#utility.yul\":1896:1958   */\n      or\n        /* \"#utility.yul\":1893:1981   */\n      iszero\n      tag_117\n      jumpi\n        /* \"#utility.yul\":1961:1979   */\n      tag_118\n      tag_62\n      jump\t// in\n    tag_118:\n        /* \"#utility.yul\":1893:1981   */\n    tag_117:\n        /* \"#utility.yul\":2001:2011   */\n      dup1\n        /* \"#utility.yul\":1997:1999   */\n      0x40\n        /* \"#utility.yul\":1990:2012   */\n      mstore\n        /* \"#utility.yul\":1780:2018   */\n      pop\n        /* \"#utility.yul\":1737:2018   */\n      pop\n      pop\n      jump\t// out\n        /* \"#utility.yul\":2024:2153   */\n    tag_64:\n        /* \"#utility.yul\":2058:2064   */\n      0x00\n        /* \"#utility.yul\":2085:2105   */\n      tag_120\n      tag_49\n      jump\t// in\n    tag_120:\n        /* \"#utility.yul\":2075:2105   */\n      swap1\n      pop\n        /* \"#utility.yul\":2114:2147   */\n      tag_121\n        /* \"#utility.yul\":2142:2146   */\n      dup3\n        /* \"#utility.yul\":2134:2140   */\n      dup3\n        /* \"#utility.yul\":2114:2147   */\n      tag_63\n      jump\t// in\n    tag_121:\n        /* \"#utility.yul\":2024:2153   */\n      swap2\n      swap1\n      pop\n      jump\t// out\n        /* \"#utility.yul\":2159:2467   */\n    tag_65:\n        /* \"#utility.yul\":2221:2225   */\n      0x00\n        /* \"#utility.yul\":2311:2329   */\n      0xffffffffffffffff\n        /* \"#utility.yul\":2303:2309   */\n      dup3\n        /* \"#utility.yul\":2300:2330   */\n      gt\n        /* \"#utility.yul\":2297:2353   */\n      iszero\n      tag_123\n      jumpi\n        /* \"#utility.yul\":2333:2351   */\n      tag_124\n      tag_62\n      jump\t// in\n    tag_124:\n        /* \"#utility.yul\":2297:2353   */\n    tag_123:\n        /* \"#utility.yul\":2371:2400   */\n      tag_125\n        /* \"#utility.yul\":2393:2399   */\n      dup3\n        /* \"#utility.yul\":2371:2400   */\n      tag_61\n      jump\t// in\n    tag_125:\n        /* \"#utility.yul\":2363:2400   */\n      swap1\n      pop\n        /* \"#utility.yul\":2455:2459   */\n      0x20\n        /* \"#utility.yul\":2449:2453   */\n      dup2\n        /* \"#utility.yul\":2445:2460   */\n      add\n        /* \"#utility.yul\":2437:2460   */\n      swap1\n      pop\n        /* \"#utility.yul\":2159:2467   */\n      swap2\n      swap1\n      pop\n      jump\t// out\n        /* \"#utility.yul\":2473:2619   */\n    tag_66:\n        /* \"#utility.yul\":2570:2576   */\n      dup3\n        /* \"#utility.yul\":2565:2568   */\n      dup2\n        /* \"#utility.yul\":2560:2563   */\n      dup4\n        /* \"#utility.yul\":2547:2577   */\n      calldatacopy\n        /* \"#utility.yul\":2611:2612   */\n      0x00\n        /* \"#utility.yul\":2602:2608   */\n      dup4\n        /* \"#utility.yul\":2597:2600   */\n      dup4\n        /* \"#utility.yul\":2593:2609   */\n      add\n        /* \"#utility.yul\":2586:2613   */\n      mstore\n        /* \"#utility.yul\":2473:2619   */\n      pop\n      pop\n      pop\n      jump\t// out\n        /* \"#utility.yul\":2625:3050   */\n    tag_67:\n        /* \"#utility.yul\":2703:2708   */\n      0x00\n        /* \"#utility.yul\":2728:2794   */\n      tag_128\n        /* \"#utility.yul\":2744:2793   */\n      tag_129\n        /* \"#utility.yul\":2786:2792   */\n      dup5\n        /* \"#utility.yul\":2744:2793   */\n      tag_65\n      jump\t// in\n    tag_129:\n        /* \"#utility.yul\":2728:2794   */\n      tag_64\n      jump\t// in\n    tag_128:\n        /* \"#utility.yul\":2719:2794   */\n      swap1\n      pop\n        /* \"#utility.yul\":2817:2823   */\n      dup3\n        /* \"#utility.yul\":2810:2815   */\n      dup2\n        /* \"#utility.yul\":2803:2824   */\n      mstore\n        /* \"#utility.yul\":2855:2859   */\n      0x20\n        /* \"#utility.yul\":2848:2853   */\n      dup2\n        /* \"#utility.yul\":2844:2860   */\n      add\n        /* \"#utility.yul\":2893:2896   */\n      dup5\n        /* \"#utility.yul\":2884:2890   */\n      dup5\n        /* \"#utility.yul\":2879:2882   */\n      dup5\n        /* \"#utility.yul\":2875:2891   */\n      add\n        /* \"#utility.yul\":2872:2897   */\n      gt\n        /* \"#utility.yul\":2869:2981   */\n      iszero\n      tag_130\n      jumpi\n        /* \"#utility.yul\":2900:2979   */\n      tag_131\n      tag_60\n      jump\t// in\n    tag_131:\n        /* \"#utility.yul\":2869:2981   */\n    tag_130:\n        /* \"#utility.yul\":2990:3044   */\n      tag_132\n        /* \"#utility.yul\":3037:3043   */\n      dup5\n        /* \"#utility.yul\":3032:3035   */\n      dup3\n        /* \"#utility.yul\":3027:3030   */\n      dup6\n        /* \"#utility.yul\":2990:3044   */\n      tag_66\n      jump\t// in\n    tag_132:\n        /* \"#utility.yul\":2709:3050   */\n      pop\n        /* \"#utility.yul\":2625:3050   */\n      swap4\n      swap3\n      pop\n      pop\n      pop\n      jump\t// out\n        /* \"#utility.yul\":3070:3410   */\n    tag_68:\n        /* \"#utility.yul\":3126:3131   */\n      0x00\n        /* \"#utility.yul\":3175:3178   */\n      dup3\n        /* \"#utility.yul\":3168:3172   */\n      0x1f\n        /* \"#utility.yul\":3160:3166   */\n      dup4\n        /* \"#utility.yul\":3156:3173   */\n      add\n        /* \"#utility.yul\":3152:3179   */\n      slt\n        /* \"#utility.yul\":3142:3264   */\n      tag_134\n      jumpi\n        /* \"#utility.yul\":3183:3262   */\n      tag_135\n      tag_59\n      jump\t// in\n    tag_135:\n        /* \"#utility.yul\":3142:3264   */\n    tag_134:\n        /* \"#utility.yul\":3300:3306   */\n      dup2\n        /* \"#utility.yul\":3287:3307   */\n      calldataload\n        /* \"#utility.yul\":3325:3404   */\n      tag_136\n        /* \"#utility.yul\":3400:3403   */\n      dup5\n        /* \"#utility.yul\":3392:3398   */\n      dup3\n        /* \"#utility.yul\":3385:3389   */\n      0x20\n        /* \"#utility.yul\":3377:3383   */\n      dup7\n        /* \"#utility.yul\":3373:3390   */\n      add\n        /* \"#utility.yul\":3325:3404   */\n      tag_67\n      jump\t// in\n    tag_136:\n        /* \"#utility.yul\":3316:3404   */\n      swap2\n      pop\n        /* \"#utility.yul\":3132:3410   */\n      pop\n        /* \"#utility.yul\":3070:3410   */\n      swap3\n      swap2\n      pop\n      pop\n      jump\t// out\n        /* \"#utility.yul\":3416:4215   */\n    tag_10:\n        /* \"#utility.yul\":3503:3509   */\n      0x00\n        /* \"#utility.yul\":3511:3517   */\n      dup1\n        /* \"#utility.yul\":3519:3525   */\n      0x00\n        /* \"#utility.yul\":3568:3570   */\n      0x60\n        /* \"#utility.yul\":3556:3565   */\n      dup5\n        /* \"#utility.yul\":3547:3554   */\n      dup7\n        /* \"#utility.yul\":3543:3566   */\n      sub\n        /* \"#utility.yul\":3539:3571   */\n      slt\n        /* \"#utility.yul\":3536:3655   */\n      iszero\n      tag_138\n      jumpi\n        /* \"#utility.yul\":3574:3653   */\n      tag_139\n      tag_50\n      jump\t// in\n    tag_139:\n        /* \"#utility.yul\":3536:3655   */\n    tag_138:\n        /* \"#utility.yul\":3694:3695   */\n      0x00\n        /* \"#utility.yul\":3719:3772   */\n      tag_140\n        /* \"#utility.yul\":3764:3771   */\n      dup7\n        /* \"#utility.yul\":3755:3761   */\n      dup3\n        /* \"#utility.yul\":3744:3753   */\n      dup8\n        /* \"#utility.yul\":3740:3762   */\n      add\n        /* \"#utility.yul\":3719:3772   */\n      tag_55\n      jump\t// in\n    tag_140:\n        /* \"#utility.yul\":3709:3772   */\n      swap4\n      pop\n        /* \"#utility.yul\":3665:3782   */\n      pop\n        /* \"#utility.yul\":3821:3823   */\n      0x20\n        /* \"#utility.yul\":3847:3900   */\n      tag_141\n        /* \"#utility.yul\":3892:3899   */\n      dup7\n        /* \"#utility.yul\":3883:3889   */\n      dup3\n        /* \"#utility.yul\":3872:3881   */\n      dup8\n        /* \"#utility.yul\":3868:3890   */\n      add\n        /* \"#utility.yul\":3847:3900   */\n      tag_58\n      jump\t// in\n    tag_141:\n        /* \"#utility.yul\":3837:3900   */\n      swap3\n      pop\n        /* \"#utility.yul\":3792:3910   */\n      pop\n        /* \"#utility.yul\":3977:3979   */\n      0x40\n        /* \"#utility.yul\":3966:3975   */\n      dup5\n        /* \"#utility.yul\":3962:3980   */\n      add\n        /* \"#utility.yul\":3949:3981   */\n      calldataload\n        /* \"#utility.yul\":4008:4026   */\n      0xffffffffffffffff\n        /* \"#utility.yul\":4000:4006   */\n      dup2\n        /* \"#utility.yul\":3997:4027   */\n      gt\n        /* \"#utility.yul\":3994:4111   */\n      iszero\n      tag_142\n      jumpi\n        /* \"#utility.yul\":4030:4109   */\n      tag_143\n      tag_51\n      jump\t// in\n    tag_143:\n        /* \"#utility.yul\":3994:4111   */\n    tag_142:\n        /* \"#utility.yul\":4135:4198   */\n      tag_144\n        /* \"#utility.yul\":4190:4197   */\n      dup7\n        /* \"#utility.yul\":4181:4187   */\n      dup3\n        /* \"#utility.yul\":4170:4179   */\n      dup8\n        /* \"#utility.yul\":4166:4188   */\n      add\n        /* \"#utility.yul\":4135:4198   */\n      tag_68\n      jump\t// in\n    tag_144:\n        /* \"#utility.yul\":4125:4198   */\n      swap2\n      pop\n        /* \"#utility.yul\":3920:4208   */\n      pop\n        /* \"#utility.yul\":3416:4215   */\n      swap3\n      pop\n      swap3\n      pop\n      swap3\n      jump\t// out\n        /* \"#utility.yul\":4221:4311   */\n    tag_69:\n        /* \"#utility.yul\":4255:4262   */\n      0x00\n        /* \"#utility.yul\":4298:4303   */\n      dup2\n        /* \"#utility.yul\":4291:4304   */\n      iszero\n        /* \"#utility.yul\":4284:4305   */\n      iszero\n        /* \"#utility.yul\":4273:4305   */\n      swap1\n      pop\n        /* \"#utility.yul\":4221:4311   */\n      swap2\n      swap1\n      pop\n      jump\t// out\n        /* \"#utility.yul\":4317:4426   */\n    tag_70:\n        /* \"#utility.yul\":4398:4419   */\n      tag_147\n        /* \"#utility.yul\":4413:4418   */\n      dup2\n        /* \"#utility.yul\":4398:4419   */\n      tag_69\n      jump\t// in\n    tag_147:\n        /* \"#utility.yul\":4393:4396   */\n      dup3\n        /* \"#utility.yul\":4386:4420   */\n      mstore\n        /* \"#utility.yul\":4317:4426   */\n      pop\n      pop\n      jump\t// out\n        /* \"#utility.yul\":4432:4642   */\n    tag_13:\n        /* \"#utility.yul\":4519:4523   */\n      0x00\n        /* \"#utility.yul\":4557:4559   */\n      0x20\n        /* \"#utility.yul\":4546:4555   */\n      dup3\n        /* \"#utility.yul\":4542:4560   */\n      add\n        /* \"#utility.yul\":4534:4560   */\n      swap1\n      pop\n        /* \"#utility.yul\":4570:4635   */\n      tag_149\n        /* \"#utility.yul\":4632:4633   */\n      0x00\n        /* \"#utility.yul\":4621:4630   */\n      dup4\n        /* \"#utility.yul\":4617:4634   */\n      add\n        /* \"#utility.yul\":4608:4614   */\n      dup5\n        /* \"#utility.yul\":4570:4635   */\n      tag_70\n      jump\t// in\n    tag_149:\n        /* \"#utility.yul\":4432:4642   */\n      swap3\n      swap2\n      pop\n      pop\n      jump\t// out\n        /* \"#utility.yul\":4648:5122   */\n    tag_16:\n        /* \"#utility.yul\":4716:4722   */\n      0x00\n        /* \"#utility.yul\":4724:4730   */\n      dup1\n        /* \"#utility.yul\":4773:4775   */\n      0x40\n        /* \"#utility.yul\":4761:4770   */\n      dup4\n        /* \"#utility.yul\":4752:4759   */\n      dup6\n        /* \"#utility.yul\":4748:4771   */\n      sub\n        /* \"#utility.yul\":4744:4776   */\n      slt\n        /* \"#utility.yul\":4741:4860   */\n      iszero\n      tag_151\n      jumpi\n        /* \"#utility.yul\":4779:4858   */\n      tag_152\n      tag_50\n      jump\t// in\n    tag_152:\n        /* \"#utility.yul\":4741:4860   */\n    tag_151:\n        /* \"#utility.yul\":4899:4900   */\n      0x00\n        /* \"#utility.yul\":4924:4977   */\n      tag_153\n        /* \"#utility.yul\":4969:4976   */\n      dup6\n        /* \"#utility.yul\":4960:4966   */\n      dup3\n        /* \"#utility.yul\":4949:4958   */\n      dup7\n        /* \"#utility.yul\":4945:4967   */\n      add\n        /* \"#utility.yul\":4924:4977   */\n      tag_55\n      jump\t// in\n    tag_153:\n        /* \"#utility.yul\":4914:4977   */\n      swap3\n      pop\n        /* \"#utility.yul\":4870:4987   */\n      pop\n        /* \"#utility.yul\":5026:5028   */\n      0x20\n        /* \"#utility.yul\":5052:5105   */\n      tag_154\n        /* \"#utility.yul\":5097:5104   */\n      dup6\n        /* \"#utility.yul\":5088:5094   */\n      dup3\n        /* \"#utility.yul\":5077:5086   */\n      dup7\n        /* \"#utility.yul\":5073:5095   */\n      add\n        /* \"#utility.yul\":5052:5105   */\n      tag_58\n      jump\t// in\n    tag_154:\n        /* \"#utility.yul\":5042:5105   */\n      swap2\n      pop\n        /* \"#utility.yul\":4997:5115   */\n      pop\n        /* \"#utility.yul\":4648:5122   */\n      swap3\n      pop\n      swap3\n      swap1\n      pop\n      jump\t// out\n        /* \"#utility.yul\":5128:5227   */\n    tag_71:\n        /* \"#utility.yul\":5180:5186   */\n      0x00\n        /* \"#utility.yul\":5214:5219   */\n      dup2\n        /* \"#utility.yul\":5208:5220   */\n      mload\n        /* \"#utility.yul\":5198:5220   */\n      swap1\n      pop\n        /* \"#utility.yul\":5128:5227   */\n      swap2\n      swap1\n      pop\n      jump\t// out\n        /* \"#utility.yul\":5233:5402   */\n    tag_72:\n        /* \"#utility.yul\":5317:5328   */\n      0x00\n        /* \"#utility.yul\":5351:5357   */\n      dup3\n        /* \"#utility.yul\":5346:5349   */\n      dup3\n        /* \"#utility.yul\":5339:5358   */\n      mstore\n        /* \"#utility.yul\":5391:5395   */\n      0x20\n        /* \"#utility.yul\":5386:5389   */\n      dup3\n        /* \"#utility.yul\":5382:5396   */\n      add\n        /* \"#utility.yul\":5367:5396   */\n      swap1\n      pop\n        /* \"#utility.yul\":5233:5402   */\n      swap3\n      swap2\n      pop\n      pop\n      jump\t// out\n        /* \"#utility.yul\":5408:5654   */\n    tag_73:\n        /* \"#utility.yul\":5489:5490   */\n      0x00\n        /* \"#utility.yul\":5499:5612   */\n    tag_158:\n        /* \"#utility.yul\":5513:5519   */\n      dup4\n        /* \"#utility.yul\":5510:5511   */\n      dup2\n        /* \"#utility.yul\":5507:5520   */\n      lt\n        /* \"#utility.yul\":5499:5612   */\n      iszero\n      tag_160\n      jumpi\n        /* \"#utility.yul\":5598:5599   */\n      dup1\n        /* \"#utility.yul\":5593:5596   */\n      dup3\n        /* \"#utility.yul\":5589:5600   */\n      add\n        /* \"#utility.yul\":5583:5601   */\n      mload\n        /* \"#utility.yul\":5579:5580   */\n      dup2\n        /* \"#utility.yul\":5574:5577   */\n      dup5\n        /* \"#utility.yul\":5570:5581   */\n      add\n        /* \"#utility.yul\":5563:5602   */\n      mstore\n        /* \"#utility.yul\":5535:5537   */\n      0x20\n        /* \"#utility.yul\":5532:5533   */\n      dup2\n        /* \"#utility.yul\":5528:5538   */\n      add\n        /* \"#utility.yul\":5523:5538   */\n      swap1\n      pop\n        /* \"#utility.yul\":5499:5612   */\n      jump(tag_158)\n    tag_160:\n        /* \"#utility.yul\":5646:5647   */\n      0x00\n        /* \"#utility.yul\":5637:5643   */\n      dup5\n        /* \"#utility.yul\":5632:5635   */\n      dup5\n        /* \"#utility.yul\":5628:5644   */\n      add\n        /* \"#utility.yul\":5621:5648   */\n      mstore\n        /* \"#utility.yul\":5470:5654   */\n      pop\n        /* \"#utility.yul\":5408:5654   */\n      pop\n      pop\n      pop\n      jump\t// out\n        /* \"#utility.yul\":5660:6037   */\n    tag_74:\n        /* \"#utility.yul\":5748:5751   */\n      0x00\n        /* \"#utility.yul\":5776:5815   */\n      tag_162\n        /* \"#utility.yul\":5809:5814   */\n      dup3\n        /* \"#utility.yul\":5776:5815   */\n      tag_71\n      jump\t// in\n    tag_162:\n        /* \"#utility.yul\":5831:5902   */\n      tag_163\n        /* \"#utility.yul\":5895:5901   */\n      dup2\n        /* \"#utility.yul\":5890:5893   */\n      dup6\n        /* \"#utility.yul\":5831:5902   */\n      tag_72\n      jump\t// in\n    tag_163:\n        /* \"#utility.yul\":5824:5902   */\n      swap4\n      pop\n        /* \"#utility.yul\":5911:5976   */\n      tag_164\n        /* \"#utility.yul\":5969:5975   */\n      dup2\n        /* \"#utility.yul\":5964:5967   */\n      dup6\n        /* \"#utility.yul\":5957:5961   */\n      0x20\n        /* \"#utility.yul\":5950:5955   */\n      dup7\n        /* \"#utility.yul\":5946:5962   */\n      add\n        /* \"#utility.yul\":5911:5976   */\n      tag_73\n      jump\t// in\n    tag_164:\n        /* \"#utility.yul\":6001:6030   */\n      tag_165\n        /* \"#utility.yul\":6023:6029   */\n      dup2\n        /* \"#utility.yul\":6001:6030   */\n      tag_61\n      jump\t// in\n    tag_165:\n        /* \"#utility.yul\":5996:5999   */\n      dup5\n        /* \"#utility.yul\":5992:6031   */\n      add\n        /* \"#utility.yul\":5985:6031   */\n      swap2\n      pop\n        /* \"#utility.yul\":5752:6037   */\n      pop\n        /* \"#utility.yul\":5660:6037   */\n      swap3\n      swap2\n      pop\n      pop\n      jump\t// out\n        /* \"#utility.yul\":6043:6454   */\n    tag_19:\n        /* \"#utility.yul\":6178:6182   */\n      0x00\n        /* \"#utility.yul\":6216:6218   */\n      0x40\n        /* \"#utility.yul\":6205:6214   */\n      dup3\n        /* \"#utility.yul\":6201:6219   */\n      add\n        /* \"#utility.yul\":6193:6219   */\n      swap1\n      pop\n        /* \"#utility.yul\":6229:6294   */\n      tag_167\n        /* \"#utility.yul\":6291:6292   */\n      0x00\n        /* \"#utility.yul\":6280:6289   */\n      dup4\n        /* \"#utility.yul\":6276:6293   */\n      add\n        /* \"#utility.yul\":6267:6273   */\n      dup6\n        /* \"#utility.yul\":6229:6294   */\n      tag_70\n      jump\t// in\n    tag_167:\n        /* \"#utility.yul\":6341:6350   */\n      dup2\n        /* \"#utility.yul\":6335:6339   */\n      dup2\n        /* \"#utility.yul\":6331:6351   */\n      sub\n        /* \"#utility.yul\":6326:6328   */\n      0x20\n        /* \"#utility.yul\":6315:6324   */\n      dup4\n        /* \"#utility.yul\":6311:6329   */\n      add\n        /* \"#utility.yul\":6304:6352   */\n      mstore\n        /* \"#utility.yul\":6369:6447   */\n      tag_168\n        /* \"#utility.yul\":6442:6446   */\n      dup2\n        /* \"#utility.yul\":6433:6439   */\n      dup5\n        /* \"#utility.yul\":6369:6447   */\n      tag_74\n      jump\t// in\n    tag_168:\n        /* \"#utility.yul\":6361:6447   */\n      swap1\n      pop\n        /* \"#utility.yul\":6043:6454   */\n      swap4\n      swap3\n      pop\n      pop\n      pop\n      jump\t// out\n        /* \"#utility.yul\":6460:6789   */\n    tag_22:\n        /* \"#utility.yul\":6519:6525   */\n      0x00\n        /* \"#utility.yul\":6568:6570   */\n      0x20\n        /* \"#utility.yul\":6556:6565   */\n      dup3\n        /* \"#utility.yul\":6547:6554   */\n      dup5\n        /* \"#utility.yul\":6543:6566   */\n      sub\n        /* \"#utility.yul\":6539:6571   */\n      slt\n        /* \"#utility.yul\":6536:6655   */\n      iszero\n      tag_170\n      jumpi\n        /* \"#utility.yul\":6574:6653   */\n      tag_171\n      tag_50\n      jump\t// in\n    tag_171:\n        /* \"#utility.yul\":6536:6655   */\n    tag_170:\n        /* \"#utility.yul\":6694:6695   */\n      0x00\n        /* \"#utility.yul\":6719:6772   */\n      tag_172\n        /* \"#utility.yul\":6764:6771   */\n      dup5\n        /* \"#utility.yul\":6755:6761   */\n      dup3\n        /* \"#utility.yul\":6744:6753   */\n      dup6\n        /* \"#utility.yul\":6740:6762   */\n      add\n        /* \"#utility.yul\":6719:6772   */\n      tag_55\n      jump\t// in\n    tag_172:\n        /* \"#utility.yul\":6709:6772   */\n      swap2\n      pop\n        /* \"#utility.yul\":6665:6782   */\n      pop\n        /* \"#utility.yul\":6460:6789   */\n      swap3\n      swap2\n      pop\n      pop\n      jump\t// out\n        /* \"#utility.yul\":6795:6913   */\n    tag_75:\n        /* \"#utility.yul\":6882:6906   */\n      tag_174\n        /* \"#utility.yul\":6900:6905   */\n      dup2\n        /* \"#utility.yul\":6882:6906   */\n      tag_53\n      jump\t// in\n    tag_174:\n        /* \"#utility.yul\":6877:6880   */\n      dup3\n        /* \"#utility.yul\":6870:6907   */\n      mstore\n        /* \"#utility.yul\":6795:6913   */\n      pop\n      pop\n      jump\t// out\n        /* \"#utility.yul\":6919:7037   */\n    tag_76:\n        /* \"#utility.yul\":7006:7030   */\n      tag_176\n        /* \"#utility.yul\":7024:7029   */\n      dup2\n        /* \"#utility.yul\":7006:7030   */\n      tag_56\n      jump\t// in\n    tag_176:\n        /* \"#utility.yul\":7001:7004   */\n      dup3\n        /* \"#utility.yul\":6994:7031   */\n      mstore\n        /* \"#utility.yul\":6919:7037   */\n      pop\n      pop\n      jump\t// out\n        /* \"#utility.yul\":7043:7375   */\n    tag_32:\n        /* \"#utility.yul\":7164:7168   */\n      0x00\n        /* \"#utility.yul\":7202:7204   */\n      0x40\n        /* \"#utility.yul\":7191:7200   */\n      dup3\n        /* \"#utility.yul\":7187:7205   */\n      add\n        /* \"#utility.yul\":7179:7205   */\n      swap1\n      pop\n        /* \"#utility.yul\":7215:7286   */\n      tag_178\n        /* \"#utility.yul\":7283:7284   */\n      0x00\n        /* \"#utility.yul\":7272:7281   */\n      dup4\n        /* \"#utility.yul\":7268:7285   */\n      add\n        /* \"#utility.yul\":7259:7265   */\n      dup6\n        /* \"#utility.yul\":7215:7286   */\n      tag_75\n      jump\t// in\n    tag_178:\n        /* \"#utility.yul\":7296:7368   */\n      tag_179\n        /* \"#utility.yul\":7364:7366   */\n      0x20\n        /* \"#utility.yul\":7353:7362   */\n      dup4\n        /* \"#utility.yul\":7349:7367   */\n      add\n        /* \"#utility.yul\":7340:7346   */\n      dup5\n        /* \"#utility.yul\":7296:7368   */\n      tag_76\n      jump\t// in\n    tag_179:\n        /* \"#utility.yul\":7043:7375   */\n      swap4\n      swap3\n      pop\n      pop\n      pop\n      jump\t// out\n        /* \"#utility.yul\":7381:7561   */\n    tag_77:\n        /* \"#utility.yul\":7429:7506   */\n      0x4e487b7100000000000000000000000000000000000000000000000000000000\n        /* \"#utility.yul\":7426:7427   */\n      0x00\n        /* \"#utility.yul\":7419:7507   */\n      mstore\n        /* \"#utility.yul\":7526:7530   */\n      0x22\n        /* \"#utility.yul\":7523:7524   */\n      0x04\n        /* \"#utility.yul\":7516:7531   */\n      mstore\n        /* \"#utility.yul\":7550:7554   */\n      0x24\n        /* \"#utility.yul\":7547:7548   */\n      0x00\n        /* \"#utility.yul\":7540:7555   */\n      revert\n        /* \"#utility.yul\":7567:7887   */\n    tag_40:\n        /* \"#utility.yul\":7611:7617   */\n      0x00\n        /* \"#utility.yul\":7648:7649   */\n      0x02\n        /* \"#utility.yul\":7642:7646   */\n      dup3\n        /* \"#utility.yul\":7638:7650   */\n      div\n        /* \"#utility.yul\":7628:7650   */\n      swap1\n      pop\n        /* \"#utility.yul\":7695:7696   */\n      0x01\n        /* \"#utility.yul\":7689:7693   */\n      dup3\n        /* \"#utility.yul\":7685:7697   */\n      and\n        /* \"#utility.yul\":7716:7734   */\n      dup1\n        /* \"#utility.yul\":7706:7787   */\n      tag_182\n      jumpi\n        /* \"#utility.yul\":7772:7776   */\n      0x7f\n        /* \"#utility.yul\":7764:7770   */\n      dup3\n        /* \"#utility.yul\":7760:7777   */\n      and\n        /* \"#utility.yul\":7750:7777   */\n      swap2\n      pop\n        /* \"#utility.yul\":7706:7787   */\n    tag_182:\n        /* \"#utility.yul\":7834:7836   */\n      0x20\n        /* \"#utility.yul\":7826:7832   */\n      dup3\n        /* \"#utility.yul\":7823:7837   */\n      lt\n        /* \"#utility.yul\":7803:7821   */\n      dup2\n        /* \"#utility.yul\":7800:7838   */\n      sub\n        /* \"#utility.yul\":7797:7881   */\n      tag_183\n      jumpi\n        /* \"#utility.yul\":7853:7871   */\n      tag_184\n      tag_77\n      jump\t// in\n    tag_184:\n        /* \"#utility.yul\":7797:7881   */\n    tag_183:\n        /* \"#utility.yul\":7618:7887   */\n      pop\n        /* \"#utility.yul\":7567:7887   */\n      swap2\n      swap1\n      pop\n      jump\t// out\n        /* \"#utility.yul\":7893:8034   */\n    tag_78:\n        /* \"#utility.yul\":7942:7946   */\n      0x00\n        /* \"#utility.yul\":7965:7968   */\n      dup2\n        /* \"#utility.yul\":7957:7968   */\n      swap1\n      pop\n        /* \"#utility.yul\":7988:7991   */\n      dup2\n        /* \"#utility.yul\":7985:7986   */\n      0x00\n        /* \"#utility.yul\":7978:7992   */\n      mstore\n        /* \"#utility.yul\":8022:8026   */\n      0x20\n        /* \"#utility.yul\":8019:8020   */\n      0x00\n        /* \"#utility.yul\":8009:8027   */\n      keccak256\n        /* \"#utility.yul\":8001:8027   */\n      swap1\n      pop\n        /* \"#utility.yul\":7893:8034   */\n      swap2\n      swap1\n      pop\n      jump\t// out\n        /* \"#utility.yul\":8040:8133   */\n    tag_79:\n        /* \"#utility.yul\":8077:8083   */\n      0x00\n        /* \"#utility.yul\":8124:8126   */\n      0x20\n        /* \"#utility.yul\":8119:8121   */\n      0x1f\n        /* \"#utility.yul\":8112:8117   */\n      dup4\n        /* \"#utility.yul\":8108:8122   */\n      add\n        /* \"#utility.yul\":8104:8127   */\n      div\n        /* \"#utility.yul\":8094:8127   */\n      swap1\n      pop\n        /* \"#utility.yul\":8040:8133   */\n      swap2\n      swap1\n      pop\n      jump\t// out\n        /* \"#utility.yul\":8139:8246   */\n    tag_80:\n        /* \"#utility.yul\":8183:8191   */\n      0x00\n        /* \"#utility.yul\":8233:8238   */\n      dup3\n        /* \"#utility.yul\":8227:8231   */\n      dup3\n        /* \"#utility.yul\":8223:8239   */\n      shl\n        /* \"#utility.yul\":8202:8239   */\n      swap1\n      pop\n        /* \"#utility.yul\":8139:8246   */\n      swap3\n      swap2\n      pop\n      pop\n      jump\t// out\n        /* \"#utility.yul\":8252:8645   */\n    tag_81:\n        /* \"#utility.yul\":8321:8327   */\n      0x00\n        /* \"#utility.yul\":8371:8372   */\n      0x08\n        /* \"#utility.yul\":8359:8369   */\n      dup4\n        /* \"#utility.yul\":8355:8373   */\n      mul\n        /* \"#utility.yul\":8394:8491   */\n      tag_189\n        /* \"#utility.yul\":8424:8490   */\n      0xffffffffffffffffffffffffffffffffffffffffffffffffffffffffffffffff\n        /* \"#utility.yul\":8413:8422   */\n      dup3\n        /* \"#utility.yul\":8394:8491   */\n      tag_80\n      jump\t// in\n    tag_189:\n        /* \"#utility.yul\":8512:8551   */\n      tag_190\n        /* \"#utility.yul\":8542:8550   */\n      dup7\n        /* \"#utility.yul\":8531:8540   */\n      dup4\n        /* \"#utility.yul\":8512:8551   */\n      tag_80\n      jump\t// in\n    tag_190:\n        /* \"#utility.yul\":8500:8551   */\n      swap6\n      pop\n        /* \"#utility.yul\":8584:8588   */\n      dup1\n        /* \"#utility.yul\":8580:8589   */\n      not\n        /* \"#utility.yul\":8573:8578   */\n      dup5\n        /* \"#utility.yul\":8569:8590   */\n      and\n        /* \"#utility.yul\":8560:8590   */\n      swap4\n      pop\n        /* \"#utility.yul\":8633:8637   */\n      dup1\n        /* \"#utility.yul\":8623:8631   */\n      dup7\n        /* \"#utility.yul\":8619:8638   */\n      and\n        /* \"#utility.yul\":8612:8617   */\n      dup5\n        /* \"#utility.yul\":8609:8639   */\n      or\n        /* \"#utility.yul\":8599:8639   */\n      swap3\n      pop\n        /* \"#utility.yul\":8328:8645   */\n      pop\n      pop\n        /* \"#utility.yul\":8252:8645   */\n      swap4\n      swap3\n      pop\n      pop\n      pop\n      jump\t// out\n        /* \"#utility.yul\":8651:8711   */\n    tag_82:\n        /* \"#utility.yul\":8679:8682   */\n      0x00\n        /* \"#utility.yul\":8700:8705   */\n      dup2\n        /* \"#utility.yul\":8693:8705   */\n      swap1\n      pop\n        /* \"#utility.yul\":8651:8711   */\n      swap2\n      swap1\n      pop\n      jump\t// out\n        /* \"#utility.yul\":8717:8859   */\n    tag_83:\n        /* \"#utility.yul\":8767:8776   */\n      0x00\n        /* \"#utility.yul\":8800:8853   */\n      tag_193\n        /* \"#utility.yul\":8818:8852   */\n      tag_194\n        /* \"#utility.yul\":8827:8851   */\n      tag_195\n        /* \"#utility.yul\":8845:8850   */\n      dup5\n        /* \"#utility.yul\":8827:8851   */\n      tag_56\n      jump\t// in\n    tag_195:\n        /* \"#utility.yul\":8818:8852   */\n      tag_82\n      jump\t// in\n    tag_194:\n        /* \"#utility.yul\":8800:8853   */\n      tag_56\n      jump\t// in\n    tag_193:\n        /* \"#utility.yul\":8787:8853   */\n      swap1\n      pop\n        /* \"#utility.yul\":8717:8859   */\n      swap2\n      swap1\n      pop\n      jump\t// out\n        /* \"#utility.yul\":8865:8940   */\n    tag_84:\n        /* \"#utility.yul\":8908:8911   */\n      0x00\n        /* \"#utility.yul\":8929:8934   */\n      dup2\n        /* \"#utility.yul\":8922:8934   */\n      swap1\n      pop\n        /* \"#utility.yul\":8865:8940   */\n      swap2\n      swap1\n      pop\n      jump\t// out\n        /* \"#utility.yul\":8946:9215   */\n    tag_85:\n        /* \"#utility.yul\":9056:9095   */\n      tag_198\n        /* \"#utility.yul\":9087:9094   */\n      dup4\n        /* \"#utility.yul\":9056:9095   */\n      tag_83\n      jump\t// in\n    tag_198:\n        /* \"#utility.yul\":9117:9208   */\n      tag_199\n        /* \"#utility.yul\":9166:9207   */\n      tag_200\n        /* \"#utility.yul\":9190:9206   */\n      dup3\n        /* \"#utility.yul\":9166:9207   */\n      tag_84\n      jump\t// in\n    tag_200:\n        /* \"#utility.yul\":9158:9164   */\n      dup5\n        /* \"#utility.yul\":9151:9155   */\n      dup5\n        /* \"#utility.yul\":9145:9156   */\n      sload\n        /* \"#utility.yul\":9117:9208   */\n      tag_81\n      jump\t// in\n    tag_199:\n        /* \"#utility.yul\":9111:9115   */\n      dup3\n        /* \"#utility.yul\":9104:9209   */\n      sstore\n        /* \"#utility.yul\":9022:9215   */\n      pop\n        /* \"#utility.yul\":8946:9215   */\n      pop\n      pop\n      pop\n      jump\t// out\n        /* \"#utility.yul\":9221:9294   */\n    tag_86:\n        /* \"#utility.yul\":9266:9269   */\n      0x00\n        /* \"#utility.yul\":9221:9294   */\n      swap1\n      jump\t// out\n        /* \"#utility.yul\":9300:9489   */\n    tag_87:\n        /* \"#utility.yul\":9377:9409   */\n      tag_203\n      tag_86\n      jump\t// in\n    tag_203:\n        /* \"#utility.yul\":9418:9483   */\n      tag_204\n        /* \"#utility.yul\":9476:9482   */\n      dup2\n        /* \"#utility.yul\":9468:9474   */\n      dup5\n        /* \"#utility.yul\":9462:9466   */\n      dup5\n        /* \"#utility.yul\":9418:9483   */\n      tag_85\n      jump\t// in\n    tag_204:\n        /* \"#utility.yul\":9353:9489   */\n      pop\n        /* \"#utility.yul\":9300:9489   */\n      pop\n      pop\n      jump\t// out\n        /* \"#utility.yul\":9495:9681   */\n    tag_88:\n        /* \"#utility.yul\":9555:9675   */\n    tag_206:\n        /* \"#utility.yul\":9572:9575   */\n      dup2\n        /* \"#utility.yul\":9565:9570   */\n      dup2\n        /* \"#utility.yul\":9562:9576   */\n      lt\n        /* \"#utility.yul\":9555:9675   */\n      iszero\n      tag_208\n      jumpi\n        /* \"#utility.yul\":9626:9665   */\n      tag_209\n        /* \"#utility.yul\":9663:9664   */\n      0x00\n        /* \"#utility.yul\":9656:9661   */\n      dup3\n        /* \"#utility.yul\":9626:9665   */\n      tag_87\n      jump\t// in\n    tag_209:\n        /* \"#utility.yul\":9599:9600   */\n      0x01\n        /* \"#utility.yul\":9592:9597   */\n      dup2\n        /* \"#utility.yul\":9588:9601   */\n      add\n        /* \"#utility.yul\":9579:9601   */\n      swap1\n      pop\n        /* \"#utility.yul\":9555:9675   */\n      jump(tag_206)\n    tag_208:\n        /* \"#utility.yul\":9495:9681   */\n      pop\n      pop\n      jump\t// out\n        /* \"#utility.yul\":9687:10230   */\n    tag_89:\n        /* \"#utility.yul\":9788:9790   */\n      0x1f\n        /* \"#utility.yul\":9783:9786   */\n      dup3\n        /* \"#utility.yul\":9780:9791   */\n      gt\n        /* \"#utility.yul\":9777:10223   */\n      iszero\n      tag_211\n      jumpi\n        /* \"#utility.yul\":9822:9860   */\n      tag_212\n        /* \"#utility.yul\":9854:9859   */\n      dup2\n        /* \"#utility.yul\":9822:9860   */\n      tag_78\n      jump\t// in\n    tag_212:\n        /* \"#utility.yul\":9906:9935   */\n      tag_213\n        /* \"#utility.yul\":9924:9934   */\n      dup5\n        /* \"#utility.yul\":9906:9935   */\n      tag_79\n      jump\t// in\n    tag_213:\n        /* \"#utility.yul\":9896:9904   */\n      dup2\n        /* \"#utility.yul\":9892:9936   */\n      add\n        /* \"#utility.yul\":10089:10091   */\n      0x20\n        /* \"#utility.yul\":10077:10087   */\n      dup6\n        /* \"#utility.yul\":10074:10092   */\n      lt\n        /* \"#utility.yul\":10071:10120   */\n      iszero\n      tag_214\n      jumpi\n        /* \"#utility.yul\":10110:10118   */\n      dup2\n        /* \"#utility.yul\":10095:10118   */\n      swap1\n      pop\n        /* \"#utility.yul\":10071:10120   */\n    tag_214:\n        /* \"#utility.yul\":10133:10213   */\n      tag_215\n        /* \"#utility.yul\":10189:10211   */\n      tag_216\n        /* \"#utility.yul\":10207:10210   */\n      dup6\n        /* \"#utility.yul\":10189:10211   */\n      tag_79\n      jump\t// in\n    tag_216:\n        /* \"#utility.yul\":10179:10187   */\n      dup4\n        /* \"#utility.yul\":10175:10212   */\n      add\n        /* \"#utility.yul\":10162:10173   */\n      dup3\n        /* \"#utility.yul\":10133:10213   */\n      tag_88\n      jump\t// in\n    tag_215:\n        /* \"#utility.yul\":9792:10223   */\n      pop\n      pop\n        /* \"#utility.yul\":9777:10223   */\n    tag_211:\n        /* \"#utility.yul\":9687:10230   */\n      pop\n      pop\n      pop\n      jump\t// out\n        /* \"#utility.yul\":10236:10353   */\n    tag_90:\n        /* \"#utility.yul\":10290:10298   */\n      0x00\n        /* \"#utility.yul\":10340:10345   */\n      dup3\n        /* \"#utility.yul\":10334:10338   */\n      dup3\n        /* \"#utility.yul\":10330:10346   */\n      shr\n        /* \"#utility.yul\":10309:10346   */\n      swap1\n      pop\n        /* \"#utility.yul\":10236:10353   */\n      swap3\n      swap2\n      pop\n      pop\n      jump\t// out\n        /* \"#utility.yul\":10359:10528   */\n    tag_91:\n        /* \"#utility.yul\":10403:10409   */\n      0x00\n        /* \"#utility.yul\":10436:10487   */\n      tag_219\n        /* \"#utility.yul\":10484:10485   */\n      0x00\n        /* \"#utility.yul\":10480:10486   */\n      not\n        /* \"#utility.yul\":10472:10477   */\n      dup5\n        /* \"#utility.yul\":10469:10470   */\n      0x08\n        /* \"#utility.yul\":10465:10478   */\n      mul\n        /* \"#utility.yul\":10436:10487   */\n      tag_90\n      jump\t// in\n    tag_219:\n        /* \"#utility.yul\":10432:10488   */\n      not\n        /* \"#utility.yul\":10517:10521   */\n      dup1\n        /* \"#utility.yul\":10511:10515   */\n      dup4\n        /* \"#utility.yul\":10507:10522   */\n      and\n        /* \"#utility.yul\":10497:10522   */\n      swap2\n      pop\n        /* \"#utility.yul\":10410:10528   */\n      pop\n        /* \"#utility.yul\":10359:10528   */\n      swap3\n      swap2\n      pop\n      pop\n      jump\t// out\n        /* \"#utility.yul\":10533:10828   */\n    tag_92:\n        /* \"#utility.yul\":10609:10613   */\n      0x00\n        /* \"#utility.yul\":10755:10784   */\n      tag_221\n        /* \"#utility.yul\":10780:10783   */\n      dup4\n        /* \"#utility.yul\":10774:10778   */\n      dup4\n        /* \"#utility.yul\":10755:10784   */\n      tag_91\n      jump\t// in\n    tag_221:\n        /* \"#utility.yul\":10747:10784   */\n      swap2\n      pop\n        /* \"#utility.yul\":10817:10820   */\n      dup3\n        /* \"#utility.yul\":10814:10815   */\n      0x02\n        /* \"#utility.yul\":10810:10821   */\n      mul\n        /* \"#utility.yul\":10804:10808   */\n      dup3\n        /* \"#utility.yul\":10801:10822   */\n      or\n        /* \"#utility.yul\":10793:10822   */\n      swap1\n      pop\n        /* \"#utility.yul\":10533:10828   */\n      swap3\n      swap2\n      pop\n      pop\n      jump\t// out\n        /* \"#utility.yul\":10833:12228   */\n    tag_36:\n        /* \"#utility.yul\":10950:10987   */\n      tag_223\n        /* \"#utility.yul\":10983:10986   */\n      dup3\n        /* \"#utility.yul\":10950:10987   */\n      tag_71\n      jump\t// in\n    tag_223:\n        /* \"#utility.yul\":11052:11070   */\n      0xffffffffffffffff\n        /* \"#utility.yul\":11044:11050   */\n      dup2\n        /* \"#utility.yul\":11041:11071   */\n      gt\n        /* \"#utility.yul\":11038:11094   */\n      iszero\n      tag_224\n      jumpi\n        /* \"#utility.yul\":11074:11092   */\n      tag_225\n      tag_62\n      jump\t// in\n    tag_225:\n        /* \"#utility.yul\":11038:11094   */\n    tag_224:\n        /* \"#utility.yul\":11118:11156   */\n      tag_226\n        /* \"#utility.yul\":11150:11154   */\n      dup3\n        /* \"#utility.yul\":11144:11155   */\n      sload\n        /* \"#utility.yul\":11118:11156   */\n      tag_40\n      jump\t// in\n    tag_226:\n        /* \"#utility.yul\":11203:11270   */\n      tag_227\n        /* \"#utility.yul\":11263:11269   */\n      dup3\n        /* \"#utility.yul\":11255:11261   */\n      dup3\n        /* \"#utility.yul\":11249:11253   */\n      dup6\n        /* \"#utility.yul\":11203:11270   */\n      tag_89\n      jump\t// in\n    tag_227:\n        /* \"#utility.yul\":11297:11298   */\n      0x00\n        /* \"#utility.yul\":11321:11325   */\n      0x20\n        /* \"#utility.yul\":11308:11325   */\n      swap1\n      pop\n        /* \"#utility.yul\":11353:11355   */\n      0x1f\n        /* \"#utility.yul\":11345:11351   */\n      dup4\n        /* \"#utility.yul\":11342:11356   */\n      gt\n        /* \"#utility.yul\":11370:11371   */\n      0x01\n        /* \"#utility.yul\":11365:11983   */\n      dup2\n      eq\n      tag_229\n      jumpi\n        /* \"#utility.yul\":12027:12028   */\n      0x00\n        /* \"#utility.yul\":12044:12050   */\n      dup5\n        /* \"#utility.yul\":12041:12118   */\n      iszero\n      tag_230\n      jumpi\n        /* \"#utility.yul\":12093:12102   */\n      dup3\n        /* \"#utility.yul\":12088:12091   */\n      dup8\n        /* \"#utility.yul\":12084:12103   */\n      add\n        /* \"#utility.yul\":12078:12104   */\n      mload\n        /* \"#utility.yul\":12069:12104   */\n      swap1\n      pop\n        /* \"#utility.yul\":12041:12118   */\n    tag_230:\n        /* \"#utility.yul\":12144:12211   */\n      tag_231\n        /* \"#utility.yul\":12204:12210   */\n      dup6\n        /* \"#utility.yul\":12197:12202   */\n      dup3\n        /* \"#utility.yul\":12144:12211   */\n      tag_92\n      jump\t// in\n    tag_231:\n        /* \"#utility.yul\":12138:12142   */\n      dup7\n        /* \"#utility.yul\":12131:12212   */\n      sstore\n        /* \"#utility.yul\":12000:12222   */\n      pop\n        /* \"#utility.yul\":11335:12222   */\n      jump(tag_228)\n        /* \"#utility.yul\":11365:11983   */\n    tag_229:\n        /* \"#utility.yul\":11417:11421   */\n      0x1f\n        /* \"#utility.yul\":11413:11422   */\n      not\n        /* \"#utility.yul\":11405:11411   */\n      dup5\n        /* \"#utility.yul\":11401:11423   */\n      and\n        /* \"#utility.yul\":11451:11488   */\n      tag_232\n        /* \"#utility.yul\":11483:11487   */\n      dup7\n        /* \"#utility.yul\":11451:11488   */\n      tag_78\n      jump\t// in\n    tag_232:\n        /* \"#utility.yul\":11510:11511   */\n      0x00\n        /* \"#utility.yul\":11524:11732   */\n    tag_233:\n        /* \"#utility.yul\":11538:11545   */\n      dup3\n        /* \"#utility.yul\":11535:11536   */\n      dup2\n        /* \"#utility.yul\":11532:11546   */\n      lt\n        /* \"#utility.yul\":11524:11732   */\n      iszero\n      tag_235\n      jumpi\n        /* \"#utility.yul\":11617:11626   */\n      dup5\n        /* \"#utility.yul\":11612:11615   */\n      dup10\n        /* \"#utility.yul\":11608:11627   */\n      add\n        /* \"#utility.yul\":11602:11628   */\n      mload\n        /* \"#utility.yul\":11594:11600   */\n      dup3\n        /* \"#utility.yul\":11587:11629   */\n      sstore\n        /* \"#utility.yul\":11668:11669   */\n      0x01\n        /* \"#utility.yul\":11660:11666   */\n      dup3\n        /* \"#utility.yul\":11656:11670   */\n      add\n        /* \"#utility.yul\":11646:11670   */\n      swap2\n      pop\n        /* \"#utility.yul\":11715:11717   */\n      0x20\n        /* \"#utility.yul\":11704:11713   */\n      dup6\n        /* \"#utility.yul\":11700:11718   */\n      add\n        /* \"#utility.yul\":11687:11718   */\n      swap5\n      pop\n        /* \"#utility.yul\":11561:11565   */\n      0x20\n        /* \"#utility.yul\":11558:11559   */\n      dup2\n        /* \"#utility.yul\":11554:11566   */\n      add\n        /* \"#utility.yul\":11549:11566   */\n      swap1\n      pop\n        /* \"#utility.yul\":11524:11732   */\n      jump(tag_233)\n    tag_235:\n        /* \"#utility.yul\":11760:11766   */\n      dup7\n        /* \"#utility.yul\":11751:11758   */\n      dup4\n        /* \"#utility.yul\":11748:11767   */\n      lt\n        /* \"#utility.yul\":11745:11924   */\n      iszero\n      tag_236\n      jumpi\n        /* \"#utility.yul\":11818:11827   */\n      dup5\n        /* \"#utility.yul\":11813:11816   */\n      dup10\n        /* \"#utility.yul\":11809:11828   */\n      add\n        /* \"#utility.yul\":11803:11829   */\n      mload\n        /* \"#utility.yul\":11861:11909   */\n      tag_237\n        /* \"#utility.yul\":11903:11907   */\n      0x1f\n        /* \"#utility.yul\":11895:11901   */\n      dup10\n        /* \"#utility.yul\":11891:11908   */\n      and\n        /* \"#utility.yul\":11880:11889   */\n      dup3\n        /* \"#utility.yul\":11861:11909   */\n      tag_91\n      jump\t// in\n    tag_237:\n        /* \"#utility.yul\":11853:11859   */\n      dup4\n        /* \"#utility.yul\":11846:11910   */\n      sstore\n        /* \"#utility.yul\":11768:11924   */\n      pop\n        /* \"#utility.yul\":11745:11924   */\n    tag_236:\n        /* \"#utility.yul\":11970:11971   */\n      0x01\n        /* \"#utility.yul\":11966:11967   */\n      0x02\n        /* \"#utility.yul\":11958:11964   */\n      dup9\n        /* \"#utility.yul\":11954:11968   */\n      mul\n        /* \"#utility.yul\":11950:11972   */\n      add\n        /* \"#utility.yul\":11944:11948   */\n      dup9\n        /* \"#utility.yul\":11937:11973   */\n      sstore\n        /* \"#utility.yul\":11372:11983   */\n      pop\n      pop\n      pop\n        /* \"#utility.yul\":11335:12222   */\n    tag_228:\n      pop\n        /* \"#utility.yul\":10925:12228   */\n      pop\n      pop\n      pop\n        /* \"#utility.yul\":10833:12228   */\n      pop\n      pop\n      jump\t// out\n\n    auxdata: 0xa26469706673582212203b79a41ea0faefa46bd2e21c79a41a3cd38650d2c76602d5c71a3ba7c1dc47a264736f6c63430008120033\n}\n",
				"bytecode": {
					"linkReferences": {},
					"object": "608060405234801561001057600080fd5b50610be4806100206000396000f3fe608060405234801561001057600080fd5b50600436106100575760003560e01c80632968ab1d1461005c57806334f2278f1461008c578063421b2d8b146100bd578063c5459ed8146100d9578063ffc9896b14610109575b600080fd5b610076600480360381019061007191906106c8565b61013a565b6040516100839190610752565b60405180910390f35b6100a660048036038101906100a1919061076d565b61028f565b6040516100b492919061082c565b60405180910390f35b6100d760048036038101906100d2919061085c565b6103e2565b005b6100f360048036038101906100ee919061076d565b61042c565b6040516101009190610752565b60405180910390f35b610123600480360381019061011e919061085c565b61048b565b6040516101319291906108a7565b60405180910390f35b60008015156000808673ffffffffffffffffffffffffffffffffffffffff1673ffffffffffffffffffffffffffffffffffffffff168152602001908152602001600020600101600085815260200190815260200160002060010160009054906101000a900460ff1615150361028357816000808673ffffffffffffffffffffffffffffffffffffffff1673ffffffffffffffffffffffffffffffffffffffff1681526020019081526020016000206001016000858152602001908152602001600020600001908161020b9190610adc565b5060016000808673ffffffffffffffffffffffffffffffffffffffff1673ffffffffffffffffffffffffffffffffffffffff168152602001908152602001600020600101600085815260200190815260200160002060010160006101000a81548160ff02191690831515021790555060019050610288565b600090505b9392505050565b600060606000808573ffffffffffffffffffffffffffffffffffffffff1673ffffffffffffffffffffffffffffffffffffffff168152602001908152602001600020600101600084815260200190815260200160002060010160009054906101000a900460ff166000808673ffffffffffffffffffffffffffffffffffffffff1673ffffffffffffffffffffffffffffffffffffffff1681526020019081526020016000206001016000858152602001908152602001600020600001808054610357906108ff565b80601f0160208091040260200160405190810160405280929190818152602001828054610383906108ff565b80156103d05780601f106103a5576101008083540402835291602001916103d0565b820191906000526020600020905b8154815290600101906020018083116103b357829003601f168201915b50505050509050915091509250929050565b60646000808373ffffffffffffffffffffffffffffffffffffffff1673ffffffffffffffffffffffffffffffffffffffff1681526020019081526020016000206000018190555050565b6000816000808573ffffffffffffffffffffffffffffffffffffffff1673ffffffffffffffffffffffffffffffffffffffff1681526020019081526020016000206000015410156104805760009050610485565b600190505b92915050565b600080826000808573ffffffffffffffffffffffffffffffffffffffff1673ffffffffffffffffffffffffffffffffffffffff1681526020019081526020016000206000015491509150915091565b6000604051905090565b600080fd5b600080fd5b600073ffffffffffffffffffffffffffffffffffffffff82169050919050565b6000610519826104ee565b9050919050565b6105298161050e565b811461053457600080fd5b50565b60008135905061054681610520565b92915050565b6000819050919050565b61055f8161054c565b811461056a57600080fd5b50565b60008135905061057c81610556565b92915050565b600080fd5b600080fd5b6000601f19601f8301169050919050565b7f4e487b7100000000000000000000000000000000000000000000000000000000600052604160045260246000fd5b6105d58261058c565b810181811067ffffffffffffffff821117156105f4576105f361059d565b5b80604052505050565b60006106076104da565b905061061382826105cc565b919050565b600067ffffffffffffffff8211156106335761063261059d565b5b61063c8261058c565b9050602081019050919050565b82818337600083830152505050565b600061066b61066684610618565b6105fd565b90508281526020810184848401111561068757610686610587565b5b610692848285610649565b509392505050565b600082601f8301126106af576106ae610582565b5b81356106bf848260208601610658565b91505092915050565b6000806000606084860312156106e1576106e06104e4565b5b60006106ef86828701610537565b93505060206107008682870161056d565b925050604084013567ffffffffffffffff811115610721576107206104e9565b5b61072d8682870161069a565b9150509250925092565b60008115159050919050565b61074c81610737565b82525050565b60006020820190506107676000830184610743565b92915050565b60008060408385031215610784576107836104e4565b5b600061079285828601610537565b92505060206107a38582860161056d565b9150509250929050565b600081519050919050565b600082825260208201905092915050565b60005b838110156107e75780820151818401526020810190506107cc565b60008484015250505050565b60006107fe826107ad565b61080881856107b8565b93506108188185602086016107c9565b6108218161058c565b840191505092915050565b60006040820190506108416000830185610743565b818103602083015261085381846107f3565b90509392505050565b600060208284031215610872576108716104e4565b5b600061088084828501610537565b91505092915050565b6108928161050e565b82525050565b6108a18161054c565b82525050565b60006040820190506108bc6000830185610889565b6108c96020830184610898565b9392505050565b7f4e487b7100000000000000000000000000000000000000000000000000000000600052602260045260246000fd5b6000600282049050600182168061091757607f821691505b60208210810361092a576109296108d0565b5b50919050565b60008190508160005260206000209050919050565b60006020601f8301049050919050565b600082821b905092915050565b6000600883026109927fffffffffffffffffffffffffffffffffffffffffffffffffffffffffffffffff82610955565b61099c8683610955565b95508019841693508086168417925050509392505050565b6000819050919050565b60006109d96109d46109cf8461054c565b6109b4565b61054c565b9050919050565b6000819050919050565b6109f3836109be565b610a076109ff826109e0565b848454610962565b825550505050565b600090565b610a1c610a0f565b610a278184846109ea565b505050565b5b81811015610a4b57610a40600082610a14565b600181019050610a2d565b5050565b601f821115610a9057610a6181610930565b610a6a84610945565b81016020851015610a79578190505b610a8d610a8585610945565b830182610a2c565b50505b505050565b600082821c905092915050565b6000610ab360001984600802610a95565b1980831691505092915050565b6000610acc8383610aa2565b9150826002028217905092915050565b610ae5826107ad565b67ffffffffffffffff811115610afe57610afd61059d565b5b610b0882546108ff565b610b13828285610a4f565b600060209050601f831160018114610b465760008415610b34578287015190505b610b3e8582610ac0565b865550610ba6565b601f198416610b5486610930565b60005b82811015610b7c57848901518255600182019150602085019450602081019050610b57565b86831015610b995784890151610b95601f891682610aa2565b8355505b6001600288020188555050505b50505050505056fea26469706673582212203b79a41ea0faefa46bd2e21c79a41a3cd38650d2c76602d5c71a3ba7c1dc47a264736f6c63430008120033",
					"opcodes": "PUSH1 0x80 PUSH1 0x40 MSTORE CALLVALUE DUP1 ISZERO PUSH2 0x10 JUMPI PUSH1 0x0 DUP1 REVERT JUMPDEST POP PUSH2 0xBE4 DUP1 PUSH2 0x20 PUSH1 0x0 CODECOPY PUSH1 0x0 RETURN INVALID PUSH1 0x80 PUSH1 0x40 MSTORE CALLVALUE DUP1 ISZERO PUSH2 0x10 JUMPI PUSH1 0x0 DUP1 REVERT JUMPDEST POP PUSH1 0x4 CALLDATASIZE LT PUSH2 0x57 JUMPI PUSH1 0x0 CALLDATALOAD PUSH1 0xE0 SHR DUP1 PUSH4 0x2968AB1D EQ PUSH2 0x5C JUMPI DUP1 PUSH4 0x34F2278F EQ PUSH2 0x8C JUMPI DUP1 PUSH4 0x421B2D8B EQ PUSH2 0xBD JUMPI DUP1 PUSH4 0xC5459ED8 EQ PUSH2 0xD9 JUMPI DUP1 PUSH4 0xFFC9896B EQ PUSH2 0x109 JUMPI JUMPDEST PUSH1 0x0 DUP1 REVERT JUMPDEST PUSH2 0x76 PUSH1 0x4 DUP1 CALLDATASIZE SUB DUP2 ADD SWAP1 PUSH2 0x71 SWAP2 SWAP1 PUSH2 0x6C8 JUMP JUMPDEST PUSH2 0x13A JUMP JUMPDEST PUSH1 0x40 MLOAD PUSH2 0x83 SWAP2 SWAP1 PUSH2 0x752 JUMP JUMPDEST PUSH1 0x40 MLOAD DUP1 SWAP2 SUB SWAP1 RETURN JUMPDEST PUSH2 0xA6 PUSH1 0x4 DUP1 CALLDATASIZE SUB DUP2 ADD SWAP1 PUSH2 0xA1 SWAP2 SWAP1 PUSH2 0x76D JUMP JUMPDEST PUSH2 0x28F JUMP JUMPDEST PUSH1 0x40 MLOAD PUSH2 0xB4 SWAP3 SWAP2 SWAP1 PUSH2 0x82C JUMP JUMPDEST PUSH1 0x40 MLOAD DUP1 SWAP2 SUB SWAP1 RETURN JUMPDEST PUSH2 0xD7 PUSH1 0x4 DUP1 CALLDATASIZE SUB DUP2 ADD SWAP1 PUSH2 0xD2 SWAP2 SWAP1 PUSH2 0x85C JUMP JUMPDEST PUSH2 0x3E2 JUMP JUMPDEST STOP JUMPDEST PUSH2 0xF3 PUSH1 0x4 DUP1 CALLDATASIZE SUB DUP2 ADD SWAP1 PUSH2 0xEE SWAP2 SWAP1 PUSH2 0x76D JUMP JUMPDEST PUSH2 0x42C JUMP JUMPDEST PUSH1 0x40 MLOAD PUSH2 0x100 SWAP2 SWAP1 PUSH2 0x752 JUMP JUMPDEST PUSH1 0x40 MLOAD DUP1 SWAP2 SUB SWAP1 RETURN JUMPDEST PUSH2 0x123 PUSH1 0x4 DUP1 CALLDATASIZE SUB DUP2 ADD SWAP1 PUSH2 0x11E SWAP2 SWAP1 PUSH2 0x85C JUMP JUMPDEST PUSH2 0x48B JUMP JUMPDEST PUSH1 0x40 MLOAD PUSH2 0x131 SWAP3 SWAP2 SWAP1 PUSH2 0x8A7 JUMP JUMPDEST PUSH1 0x40 MLOAD DUP1 SWAP2 SUB SWAP1 RETURN JUMPDEST PUSH1 0x0 DUP1 ISZERO ISZERO PUSH1 0x0 DUP1 DUP7 PUSH20 0xFFFFFFFFFFFFFFFFFFFFFFFFFFFFFFFFFFFFFFFF AND PUSH20 0xFFFFFFFFFFFFFFFFFFFFFFFFFFFFFFFFFFFFFFFF AND DUP2 MSTORE PUSH1 0x20 ADD SWAP1 DUP2 MSTORE PUSH1 0x20 ADD PUSH1 0x0 KECCAK256 PUSH1 0x1 ADD PUSH1 0x0 DUP6 DUP2 MSTORE PUSH1 0x20 ADD SWAP1 DUP2 MSTORE PUSH1 0x20 ADD PUSH1 0x0 KECCAK256 PUSH1 0x1 ADD PUSH1 0x0 SWAP1 SLOAD SWAP1 PUSH2 0x100 EXP SWAP1 DIV PUSH1 0xFF AND ISZERO ISZERO SUB PUSH2 0x283 JUMPI DUP2 PUSH1 0x0 DUP1 DUP7 PUSH20 0xFFFFFFFFFFFFFFFFFFFFFFFFFFFFFFFFFFFFFFFF AND PUSH20 0xFFFFFFFFFFFFFFFFFFFFFFFFFFFFFFFFFFFFFFFF AND DUP2 MSTORE PUSH1 0x20 ADD SWAP1 DUP2 MSTORE PUSH1 0x20 ADD PUSH1 0x0 KECCAK256 PUSH1 0x1 ADD PUSH1 0x0 DUP6 DUP2 MSTORE PUSH1 0x20 ADD SWAP1 DUP2 MSTORE PUSH1 0x20 ADD PUSH1 0x0 KECCAK256 PUSH1 0x0 ADD SWAP1 DUP2 PUSH2 0x20B SWAP2 SWAP1 PUSH2 0xADC JUMP JUMPDEST POP PUSH1 0x1 PUSH1 0x0 DUP1 DUP7 PUSH20 0xFFFFFFFFFFFFFFFFFFFFFFFFFFFFFFFFFFFFFFFF AND PUSH20 0xFFFFFFFFFFFFFFFFFFFFFFFFFFFFFFFFFFFFFFFF AND DUP2 MSTORE PUSH1 0x20 ADD SWAP1 DUP2 MSTORE PUSH1 0x20 ADD PUSH1 0x0 KECCAK256 PUSH1 0x1 ADD PUSH1 0x0 DUP6 DUP2 MSTORE PUSH1 0x20 ADD SWAP1 DUP2 MSTORE PUSH1 0x20 ADD PUSH1 0x0 KECCAK256 PUSH1 0x1 ADD PUSH1 0x0 PUSH2 0x100 EXP DUP2 SLOAD DUP2 PUSH1 0xFF MUL NOT AND SWAP1 DUP4 ISZERO ISZERO MUL OR SWAP1 SSTORE POP PUSH1 0x1 SWAP1 POP PUSH2 0x288 JUMP JUMPDEST PUSH1 0x0 SWAP1 POP JUMPDEST SWAP4 SWAP3 POP POP POP JUMP JUMPDEST PUSH1 0x0 PUSH1 0x60 PUSH1 0x0 DUP1 DUP6 PUSH20 0xFFFFFFFFFFFFFFFFFFFFFFFFFFFFFFFFFFFFFFFF AND PUSH20 0xFFFFFFFFFFFFFFFFFFFFFFFFFFFFFFFFFFFFFFFF AND DUP2 MSTORE PUSH1 0x20 ADD SWAP1 DUP2 MSTORE PUSH1 0x20 ADD PUSH1 0x0 KECCAK256 PUSH1 0x1 ADD PUSH1 0x0 DUP5 DUP2 MSTORE PUSH1 0x20 ADD SWAP1 DUP2 MSTORE PUSH1 0x20 ADD PUSH1 0x0 KECCAK256 PUSH1 0x1 ADD PUSH1 0x0 SWAP1 SLOAD SWAP1 PUSH2 0x100 EXP SWAP1 DIV PUSH1 0xFF AND PUSH1 0x0 DUP1 DUP7 PUSH20 0xFFFFFFFFFFFFFFFFFFFFFFFFFFFFFFFFFFFFFFFF AND PUSH20 0xFFFFFFFFFFFFFFFFFFFFFFFFFFFFFFFFFFFFFFFF AND DUP2 MSTORE PUSH1 0x20 ADD SWAP1 DUP2 MSTORE PUSH1 0x20 ADD PUSH1 0x0 KECCAK256 PUSH1 0x1 ADD PUSH1 0x0 DUP6 DUP2 MSTORE PUSH1 0x20 ADD SWAP1 DUP2 MSTORE PUSH1 0x20 ADD PUSH1 0x0 KECCAK256 PUSH1 0x0 ADD DUP1 DUP1 SLOAD PUSH2 0x357 SWAP1 PUSH2 0x8FF JUMP JUMPDEST DUP1 PUSH1 0x1F ADD PUSH1 0x20 DUP1 SWAP2 DIV MUL PUSH1 0x20 ADD PUSH1 0x40 MLOAD SWAP1 DUP2 ADD PUSH1 0x40 MSTORE DUP1 SWAP3 SWAP2 SWAP1 DUP2 DUP2 MSTORE PUSH1 0x20 ADD DUP3 DUP1 SLOAD PUSH2 0x383 SWAP1 PUSH2 0x8FF JUMP JUMPDEST DUP1 ISZERO PUSH2 0x3D0 JUMPI DUP1 PUSH1 0x1F LT PUSH2 0x3A5 JUMPI PUSH2 0x100 DUP1 DUP4 SLOAD DIV MUL DUP4 MSTORE SWAP2 PUSH1 0x20 ADD SWAP2 PUSH2 0x3D0 JUMP JUMPDEST DUP3 ADD SWAP2 SWAP1 PUSH1 0x0 MSTORE PUSH1 0x20 PUSH1 0x0 KECCAK256 SWAP1 JUMPDEST DUP2 SLOAD DUP2 MSTORE SWAP1 PUSH1 0x1 ADD SWAP1 PUSH1 0x20 ADD DUP1 DUP4 GT PUSH2 0x3B3 JUMPI DUP3 SWAP1 SUB PUSH1 0x1F AND DUP3 ADD SWAP2 JUMPDEST POP POP POP POP POP SWAP1 POP SWAP2 POP SWAP2 POP SWAP3 POP SWAP3 SWAP1 POP JUMP JUMPDEST PUSH1 0x64 PUSH1 0x0 DUP1 DUP4 PUSH20 0xFFFFFFFFFFFFFFFFFFFFFFFFFFFFFFFFFFFFFFFF AND PUSH20 0xFFFFFFFFFFFFFFFFFFFFFFFFFFFFFFFFFFFFFFFF AND DUP2 MSTORE PUSH1 0x20 ADD SWAP1 DUP2 MSTORE PUSH1 0x20 ADD PUSH1 0x0 KECCAK256 PUSH1 0x0 ADD DUP2 SWAP1 SSTORE POP POP JUMP JUMPDEST PUSH1 0x0 DUP2 PUSH1 0x0 DUP1 DUP6 PUSH20 0xFFFFFFFFFFFFFFFFFFFFFFFFFFFFFFFFFFFFFFFF AND PUSH20 0xFFFFFFFFFFFFFFFFFFFFFFFFFFFFFFFFFFFFFFFF AND DUP2 MSTORE PUSH1 0x20 ADD SWAP1 DUP2 MSTORE PUSH1 0x20 ADD PUSH1 0x0 KECCAK256 PUSH1 0x0 ADD SLOAD LT ISZERO PUSH2 0x480 JUMPI PUSH1 0x0 SWAP1 POP PUSH2 0x485 JUMP JUMPDEST PUSH1 0x1 SWAP1 POP JUMPDEST SWAP3 SWAP2 POP POP JUMP JUMPDEST PUSH1 0x0 DUP1 DUP3 PUSH1 0x0 DUP1 DUP6 PUSH20 0xFFFFFFFFFFFFFFFFFFFFFFFFFFFFFFFFFFFFFFFF AND PUSH20 0xFFFFFFFFFFFFFFFFFFFFFFFFFFFFFFFFFFFFFFFF AND DUP2 MSTORE PUSH1 0x20 ADD SWAP1 DUP2 MSTORE PUSH1 0x20 ADD PUSH1 0x0 KECCAK256 PUSH1 0x0 ADD SLOAD SWAP2 POP SWAP2 POP SWAP2 POP SWAP2 JUMP JUMPDEST PUSH1 0x0 PUSH1 0x40 MLOAD SWAP1 POP SWAP1 JUMP JUMPDEST PUSH1 0x0 DUP1 REVERT JUMPDEST PUSH1 0x0 DUP1 REVERT JUMPDEST PUSH1 0x0 PUSH20 0xFFFFFFFFFFFFFFFFFFFFFFFFFFFFFFFFFFFFFFFF DUP3 AND SWAP1 POP SWAP2 SWAP1 POP JUMP JUMPDEST PUSH1 0x0 PUSH2 0x519 DUP3 PUSH2 0x4EE JUMP JUMPDEST SWAP1 POP SWAP2 SWAP1 POP JUMP JUMPDEST PUSH2 0x529 DUP2 PUSH2 0x50E JUMP JUMPDEST DUP2 EQ PUSH2 0x534 JUMPI PUSH1 0x0 DUP1 REVERT JUMPDEST POP JUMP JUMPDEST PUSH1 0x0 DUP2 CALLDATALOAD SWAP1 POP PUSH2 0x546 DUP2 PUSH2 0x520 JUMP JUMPDEST SWAP3 SWAP2 POP POP JUMP JUMPDEST PUSH1 0x0 DUP2 SWAP1 POP SWAP2 SWAP1 POP JUMP JUMPDEST PUSH2 0x55F DUP2 PUSH2 0x54C JUMP JUMPDEST DUP2 EQ PUSH2 0x56A JUMPI PUSH1 0x0 DUP1 REVERT JUMPDEST POP JUMP JUMPDEST PUSH1 0x0 DUP2 CALLDATALOAD SWAP1 POP PUSH2 0x57C DUP2 PUSH2 0x556 JUMP JUMPDEST SWAP3 SWAP2 POP POP JUMP JUMPDEST PUSH1 0x0 DUP1 REVERT JUMPDEST PUSH1 0x0 DUP1 REVERT JUMPDEST PUSH1 0x0 PUSH1 0x1F NOT PUSH1 0x1F DUP4 ADD AND SWAP1 POP SWAP2 SWAP1 POP JUMP JUMPDEST PUSH32 0x4E487B7100000000000000000000000000000000000000000000000000000000 PUSH1 0x0 MSTORE PUSH1 0x41 PUSH1 0x4 MSTORE PUSH1 0x24 PUSH1 0x0 REVERT JUMPDEST PUSH2 0x5D5 DUP3 PUSH2 0x58C JUMP JUMPDEST DUP2 ADD DUP2 DUP2 LT PUSH8 0xFFFFFFFFFFFFFFFF DUP3 GT OR ISZERO PUSH2 0x5F4 JUMPI PUSH2 0x5F3 PUSH2 0x59D JUMP JUMPDEST JUMPDEST DUP1 PUSH1 0x40 MSTORE POP POP POP JUMP JUMPDEST PUSH1 0x0 PUSH2 0x607 PUSH2 0x4DA JUMP JUMPDEST SWAP1 POP PUSH2 0x613 DUP3 DUP3 PUSH2 0x5CC JUMP JUMPDEST SWAP2 SWAP1 POP JUMP JUMPDEST PUSH1 0x0 PUSH8 0xFFFFFFFFFFFFFFFF DUP3 GT ISZERO PUSH2 0x633 JUMPI PUSH2 0x632 PUSH2 0x59D JUMP JUMPDEST JUMPDEST PUSH2 0x63C DUP3 PUSH2 0x58C JUMP JUMPDEST SWAP1 POP PUSH1 0x20 DUP2 ADD SWAP1 POP SWAP2 SWAP1 POP JUMP JUMPDEST DUP3 DUP2 DUP4 CALLDATACOPY PUSH1 0x0 DUP4 DUP4 ADD MSTORE POP POP POP JUMP JUMPDEST PUSH1 0x0 PUSH2 0x66B PUSH2 0x666 DUP5 PUSH2 0x618 JUMP JUMPDEST PUSH2 0x5FD JUMP JUMPDEST SWAP1 POP DUP3 DUP2 MSTORE PUSH1 0x20 DUP2 ADD DUP5 DUP5 DUP5 ADD GT ISZERO PUSH2 0x687 JUMPI PUSH2 0x686 PUSH2 0x587 JUMP JUMPDEST JUMPDEST PUSH2 0x692 DUP5 DUP3 DUP6 PUSH2 0x649 JUMP JUMPDEST POP SWAP4 SWAP3 POP POP POP JUMP JUMPDEST PUSH1 0x0 DUP3 PUSH1 0x1F DUP4 ADD SLT PUSH2 0x6AF JUMPI PUSH2 0x6AE PUSH2 0x582 JUMP JUMPDEST JUMPDEST DUP2 CALLDATALOAD PUSH2 0x6BF DUP5 DUP3 PUSH1 0x20 DUP7 ADD PUSH2 0x658 JUMP JUMPDEST SWAP2 POP POP SWAP3 SWAP2 POP POP JUMP JUMPDEST PUSH1 0x0 DUP1 PUSH1 0x0 PUSH1 0x60 DUP5 DUP7 SUB SLT ISZERO PUSH2 0x6E1 JUMPI PUSH2 0x6E0 PUSH2 0x4E4 JUMP JUMPDEST JUMPDEST PUSH1 0x0 PUSH2 0x6EF DUP7 DUP3 DUP8 ADD PUSH2 0x537 JUMP JUMPDEST SWAP4 POP POP PUSH1 0x20 PUSH2 0x700 DUP7 DUP3 DUP8 ADD PUSH2 0x56D JUMP JUMPDEST SWAP3 POP POP PUSH1 0x40 DUP5 ADD CALLDATALOAD PUSH8 0xFFFFFFFFFFFFFFFF DUP2 GT ISZERO PUSH2 0x721 JUMPI PUSH2 0x720 PUSH2 0x4E9 JUMP JUMPDEST JUMPDEST PUSH2 0x72D DUP7 DUP3 DUP8 ADD PUSH2 0x69A JUMP JUMPDEST SWAP2 POP POP SWAP3 POP SWAP3 POP SWAP3 JUMP JUMPDEST PUSH1 0x0 DUP2 ISZERO ISZERO SWAP1 POP SWAP2 SWAP1 POP JUMP JUMPDEST PUSH2 0x74C DUP2 PUSH2 0x737 JUMP JUMPDEST DUP3 MSTORE POP POP JUMP JUMPDEST PUSH1 0x0 PUSH1 0x20 DUP3 ADD SWAP1 POP PUSH2 0x767 PUSH1 0x0 DUP4 ADD DUP5 PUSH2 0x743 JUMP JUMPDEST SWAP3 SWAP2 POP POP JUMP JUMPDEST PUSH1 0x0 DUP1 PUSH1 0x40 DUP4 DUP6 SUB SLT ISZERO PUSH2 0x784 JUMPI PUSH2 0x783 PUSH2 0x4E4 JUMP JUMPDEST JUMPDEST PUSH1 0x0 PUSH2 0x792 DUP6 DUP3 DUP7 ADD PUSH2 0x537 JUMP JUMPDEST SWAP3 POP POP PUSH1 0x20 PUSH2 0x7A3 DUP6 DUP3 DUP7 ADD PUSH2 0x56D JUMP JUMPDEST SWAP2 POP POP SWAP3 POP SWAP3 SWAP1 POP JUMP JUMPDEST PUSH1 0x0 DUP2 MLOAD SWAP1 POP SWAP2 SWAP1 POP JUMP JUMPDEST PUSH1 0x0 DUP3 DUP3 MSTORE PUSH1 0x20 DUP3 ADD SWAP1 POP SWAP3 SWAP2 POP POP JUMP JUMPDEST PUSH1 0x0 JUMPDEST DUP4 DUP2 LT ISZERO PUSH2 0x7E7 JUMPI DUP1 DUP3 ADD MLOAD DUP2 DUP5 ADD MSTORE PUSH1 0x20 DUP2 ADD SWAP1 POP PUSH2 0x7CC JUMP JUMPDEST PUSH1 0x0 DUP5 DUP5 ADD MSTORE POP POP POP POP JUMP JUMPDEST PUSH1 0x0 PUSH2 0x7FE DUP3 PUSH2 0x7AD JUMP JUMPDEST PUSH2 0x808 DUP2 DUP6 PUSH2 0x7B8 JUMP JUMPDEST SWAP4 POP PUSH2 0x818 DUP2 DUP6 PUSH1 0x20 DUP7 ADD PUSH2 0x7C9 JUMP JUMPDEST PUSH2 0x821 DUP2 PUSH2 0x58C JUMP JUMPDEST DUP5 ADD SWAP2 POP POP SWAP3 SWAP2 POP POP JUMP JUMPDEST PUSH1 0x0 PUSH1 0x40 DUP3 ADD SWAP1 POP PUSH2 0x841 PUSH1 0x0 DUP4 ADD DUP6 PUSH2 0x743 JUMP JUMPDEST DUP2 DUP2 SUB PUSH1 0x20 DUP4 ADD MSTORE PUSH2 0x853 DUP2 DUP5 PUSH2 0x7F3 JUMP JUMPDEST SWAP1 POP SWAP4 SWAP3 POP POP POP JUMP JUMPDEST PUSH1 0x0 PUSH1 0x20 DUP3 DUP5 SUB SLT ISZERO PUSH2 0x872 JUMPI PUSH2 0x871 PUSH2 0x4E4 JUMP JUMPDEST JUMPDEST PUSH1 0x0 PUSH2 0x880 DUP5 DUP3 DUP6 ADD PUSH2 0x537 JUMP JUMPDEST SWAP2 POP POP SWAP3 SWAP2 POP POP JUMP JUMPDEST PUSH2 0x892 DUP2 PUSH2 0x50E JUMP JUMPDEST DUP3 MSTORE POP POP JUMP JUMPDEST PUSH2 0x8A1 DUP2 PUSH2 0x54C JUMP JUMPDEST DUP3 MSTORE POP POP JUMP JUMPDEST PUSH1 0x0 PUSH1 0x40 DUP3 ADD SWAP1 POP PUSH2 0x8BC PUSH1 0x0 DUP4 ADD DUP6 PUSH2 0x889 JUMP JUMPDEST PUSH2 0x8C9 PUSH1 0x20 DUP4 ADD DUP5 PUSH2 0x898 JUMP JUMPDEST SWAP4 SWAP3 POP POP POP JUMP JUMPDEST PUSH32 0x4E487B7100000000000000000000000000000000000000000000000000000000 PUSH1 0x0 MSTORE PUSH1 0x22 PUSH1 0x4 MSTORE PUSH1 0x24 PUSH1 0x0 REVERT JUMPDEST PUSH1 0x0 PUSH1 0x2 DUP3 DIV SWAP1 POP PUSH1 0x1 DUP3 AND DUP1 PUSH2 0x917 JUMPI PUSH1 0x7F DUP3 AND SWAP2 POP JUMPDEST PUSH1 0x20 DUP3 LT DUP2 SUB PUSH2 0x92A JUMPI PUSH2 0x929 PUSH2 0x8D0 JUMP JUMPDEST JUMPDEST POP SWAP2 SWAP1 POP JUMP JUMPDEST PUSH1 0x0 DUP2 SWAP1 POP DUP2 PUSH1 0x0 MSTORE PUSH1 0x20 PUSH1 0x0 KECCAK256 SWAP1 POP SWAP2 SWAP1 POP JUMP JUMPDEST PUSH1 0x0 PUSH1 0x20 PUSH1 0x1F DUP4 ADD DIV SWAP1 POP SWAP2 SWAP1 POP JUMP JUMPDEST PUSH1 0x0 DUP3 DUP3 SHL SWAP1 POP SWAP3 SWAP2 POP POP JUMP JUMPDEST PUSH1 0x0 PUSH1 0x8 DUP4 MUL PUSH2 0x992 PUSH32 0xFFFFFFFFFFFFFFFFFFFFFFFFFFFFFFFFFFFFFFFFFFFFFFFFFFFFFFFFFFFFFFFF DUP3 PUSH2 0x955 JUMP JUMPDEST PUSH2 0x99C DUP7 DUP4 PUSH2 0x955 JUMP JUMPDEST SWAP6 POP DUP1 NOT DUP5 AND SWAP4 POP DUP1 DUP7 AND DUP5 OR SWAP3 POP POP POP SWAP4 SWAP3 POP POP POP JUMP JUMPDEST PUSH1 0x0 DUP2 SWAP1 POP SWAP2 SWAP1 POP JUMP JUMPDEST PUSH1 0x0 PUSH2 0x9D9 PUSH2 0x9D4 PUSH2 0x9CF DUP5 PUSH2 0x54C JUMP JUMPDEST PUSH2 0x9B4 JUMP JUMPDEST PUSH2 0x54C JUMP JUMPDEST SWAP1 POP SWAP2 SWAP1 POP JUMP JUMPDEST PUSH1 0x0 DUP2 SWAP1 POP SWAP2 SWAP1 POP JUMP JUMPDEST PUSH2 0x9F3 DUP4 PUSH2 0x9BE JUMP JUMPDEST PUSH2 0xA07 PUSH2 0x9FF DUP3 PUSH2 0x9E0 JUMP JUMPDEST DUP5 DUP5 SLOAD PUSH2 0x962 JUMP JUMPDEST DUP3 SSTORE POP POP POP POP JUMP JUMPDEST PUSH1 0x0 SWAP1 JUMP JUMPDEST PUSH2 0xA1C PUSH2 0xA0F JUMP JUMPDEST PUSH2 0xA27 DUP2 DUP5 DUP5 PUSH2 0x9EA JUMP JUMPDEST POP POP POP JUMP JUMPDEST JUMPDEST DUP2 DUP2 LT ISZERO PUSH2 0xA4B JUMPI PUSH2 0xA40 PUSH1 0x0 DUP3 PUSH2 0xA14 JUMP JUMPDEST PUSH1 0x1 DUP2 ADD SWAP1 POP PUSH2 0xA2D JUMP JUMPDEST POP POP JUMP JUMPDEST PUSH1 0x1F DUP3 GT ISZERO PUSH2 0xA90 JUMPI PUSH2 0xA61 DUP2 PUSH2 0x930 JUMP JUMPDEST PUSH2 0xA6A DUP5 PUSH2 0x945 JUMP JUMPDEST DUP2 ADD PUSH1 0x20 DUP6 LT ISZERO PUSH2 0xA79 JUMPI DUP2 SWAP1 POP JUMPDEST PUSH2 0xA8D PUSH2 0xA85 DUP6 PUSH2 0x945 JUMP JUMPDEST DUP4 ADD DUP3 PUSH2 0xA2C JUMP JUMPDEST POP POP JUMPDEST POP POP POP JUMP JUMPDEST PUSH1 0x0 DUP3 DUP3 SHR SWAP1 POP SWAP3 SWAP2 POP POP JUMP JUMPDEST PUSH1 0x0 PUSH2 0xAB3 PUSH1 0x0 NOT DUP5 PUSH1 0x8 MUL PUSH2 0xA95 JUMP JUMPDEST NOT DUP1 DUP4 AND SWAP2 POP POP SWAP3 SWAP2 POP POP JUMP JUMPDEST PUSH1 0x0 PUSH2 0xACC DUP4 DUP4 PUSH2 0xAA2 JUMP JUMPDEST SWAP2 POP DUP3 PUSH1 0x2 MUL DUP3 OR SWAP1 POP SWAP3 SWAP2 POP POP JUMP JUMPDEST PUSH2 0xAE5 DUP3 PUSH2 0x7AD JUMP JUMPDEST PUSH8 0xFFFFFFFFFFFFFFFF DUP2 GT ISZERO PUSH2 0xAFE JUMPI PUSH2 0xAFD PUSH2 0x59D JUMP JUMPDEST JUMPDEST PUSH2 0xB08 DUP3 SLOAD PUSH2 0x8FF JUMP JUMPDEST PUSH2 0xB13 DUP3 DUP3 DUP6 PUSH2 0xA4F JUMP JUMPDEST PUSH1 0x0 PUSH1 0x20 SWAP1 POP PUSH1 0x1F DUP4 GT PUSH1 0x1 DUP2 EQ PUSH2 0xB46 JUMPI PUSH1 0x0 DUP5 ISZERO PUSH2 0xB34 JUMPI DUP3 DUP8 ADD MLOAD SWAP1 POP JUMPDEST PUSH2 0xB3E DUP6 DUP3 PUSH2 0xAC0 JUMP JUMPDEST DUP7 SSTORE POP PUSH2 0xBA6 JUMP JUMPDEST PUSH1 0x1F NOT DUP5 AND PUSH2 0xB54 DUP7 PUSH2 0x930 JUMP JUMPDEST PUSH1 0x0 JUMPDEST DUP3 DUP2 LT ISZERO PUSH2 0xB7C JUMPI DUP5 DUP10 ADD MLOAD DUP3 SSTORE PUSH1 0x1 DUP3 ADD SWAP2 POP PUSH1 0x20 DUP6 ADD SWAP5 POP PUSH1 0x20 DUP2 ADD SWAP1 POP PUSH2 0xB57 JUMP JUMPDEST DUP7 DUP4 LT ISZERO PUSH2 0xB99 JUMPI DUP5 DUP10 ADD MLOAD PUSH2 0xB95 PUSH1 0x1F DUP10 AND DUP3 PUSH2 0xAA2 JUMP JUMPDEST DUP4 SSTORE POP JUMPDEST PUSH1 0x1 PUSH1 0x2 DUP9 MUL ADD DUP9 SSTORE POP POP POP JUMPDEST POP POP POP POP POP POP JUMP INVALID LOG2 PUSH5 0x6970667358 0x22 SLT KECCAK256 EXTCODESIZE PUSH26 0xA41EA0FAEFA46BD2E21C79A41A3CD38650D2C76602D5C71A3BA7 0xC1 0xDC SELFBALANCE LOG2 PUSH5 0x736F6C6343 STOP ADDMOD SLT STOP CALLER "
				},
				"gasEstimates": {
					"creation": {
						"codeDepositCost": "608800",
						"executionCost": "645",
						"totalCost": "609445"
					},
					"external": {
						"addPlatformToUser(address,uint256,string)": "infinite",
						"addUser(address)": "22687",
						"checkUserBalance(address,uint256)": "3107",
						"checkUserPlatform(address,uint256)": "infinite",
						"getUserData(address)": "infinite"
					}
				},
				"methodIdentifiers": {
					"addPlatformToUser(address,uint256,string)": "2968ab1d",
					"addUser(address)": "421b2d8b",
					"checkUserBalance(address,uint256)": "c5459ed8",
					"checkUserPlatform(address,uint256)": "34f2278f",
					"getUserData(address)": "ffc9896b"
				}
			},
			"storageLayout": {
				"storage": [
					{
						"astId": 19,
						"contract": "contracts/User.sol:User",
						"label": "userData",
						"offset": 0,
						"slot": "0",
						"type": "t_mapping(t_address,t_struct(UserStruct)14_storage)"
					}
				],
				"types": {
					"t_address": {
						"encoding": "inplace",
						"label": "address",
						"numberOfBytes": "20"
					},
					"t_bool": {
						"encoding": "inplace",
						"label": "bool",
						"numberOfBytes": "1"
					},
					"t_mapping(t_address,t_struct(UserStruct)14_storage)": {
						"encoding": "mapping",
						"key": "t_address",
						"label": "mapping(address => struct User.UserStruct)",
						"numberOfBytes": "32",
						"value": "t_struct(UserStruct)14_storage"
					},
					"t_mapping(t_uint256,t_struct(PlatformStruct)6_storage)": {
						"encoding": "mapping",
						"key": "t_uint256",
						"label": "mapping(uint256 => struct User.PlatformStruct)",
						"numberOfBytes": "32",
						"value": "t_struct(PlatformStruct)6_storage"
					},
					"t_string_storage": {
						"encoding": "bytes",
						"label": "string",
						"numberOfBytes": "32"
					},
					"t_struct(PlatformStruct)6_storage": {
						"encoding": "inplace",
						"label": "struct User.PlatformStruct",
						"members": [
							{
								"astId": 3,
								"contract": "contracts/User.sol:User",
								"label": "platformName",
								"offset": 0,
								"slot": "0",
								"type": "t_string_storage"
							},
							{
								"astId": 5,
								"contract": "contracts/User.sol:User",
								"label": "isValid",
								"offset": 0,
								"slot": "1",
								"type": "t_bool"
							}
						],
						"numberOfBytes": "64"
					},
					"t_struct(UserStruct)14_storage": {
						"encoding": "inplace",
						"label": "struct User.UserStruct",
						"members": [
							{
								"astId": 8,
								"contract": "contracts/User.sol:User",
								"label": "balance",
								"offset": 0,
								"slot": "0",
								"type": "t_uint256"
							},
							{
								"astId": 13,
								"contract": "contracts/User.sol:User",
								"label": "platforms",
								"offset": 0,
								"slot": "1",
								"type": "t_mapping(t_uint256,t_struct(PlatformStruct)6_storage)"
							}
						],
						"numberOfBytes": "64"
					},
					"t_uint256": {
						"encoding": "inplace",
						"label": "uint256",
						"numberOfBytes": "32"
					}
				}
			},
			"userdoc": {
				"kind": "user",
				"methods": {},
				"version": 1
			}
		}
	}
}